:1000000000308A00952A0000FF00030E8301A10042
:100010000A08A0008A010408A2007708A300780853
:10002000A4007908A5007A08A6007B08A70083131E
:1000300083128B1E1D280B1934280B1E21288B18A8
:100040003728220884002308F7002408F800250830
:10005000F9002608FA002708FB0020088A00210E74
:100060008300FF0E7F0E09008A110A1257288A1199
:100070000A12562A0A108A100A11820728340C34F0
:10008000013406340A108A100A1182070C346E34C7
:1000900075346D346234653472343A3400340A1085
:1000A0008A100A1182076D3473343A340034AA0B73
:1000B0005E28AF0A0319B00A1330AA000B118A1187
:1000C0000A1221288B12B001AF010130F800003470
:1000D0005A08F8015902031870285908F7007C28BB
:1000E000F7010830DB00D90DF70D5A087702031825
:1000F000F700F80DDB0B73280034F801F901F70164
:10010000FA015D08031D87285C080319A128103037
:10011000DE000310DA0DDB0DF70DFA0D5D087A0233
:10012000031D94285C087702031C9D285C08F702D5
:10013000031CFA035D08FA020314F80DF90DDE0B37
:1001400089280034F701F801F901FA01E501E60117
:10015000E701E80164086304620461040319E0280C
:100160002030E9000310DD0DDE0DDF0DE00DE50DA3
:10017000E60DE70DE80D64086802031DC928630851
:100180006702031DC92862086602031DC9286108A9
:100190006502031CDA286108E5026208031C620F8D
:1001A000E6026308031C630FE7026408031C640F84
:1001B000E8020314F70DF80DF90DFA0DE90BB2285A
:1001C0006530840083130034DF01831688118312A5
:1001D000881500008316081683125F10081A5F1432
:1001E000831688168312DF10881ADF148316081707
:1001F00083125F11081B5F15831688178312DF11A6
:10020000881BDF1583168811831288115F08F80098
:10021000003483160811831208150000E4207808C2
:10022000DE00E4207808DD005E0EF700F030F70510
:1002300077085D04F80000345E182029081221298F
:100240000816831608128312DE1828298812292915
:1002500088168316881283125E19302908133129F3
:100260000817831608138312DE19382988133929D1
:1002700088178316881300008811831288150330AD
:10028000F700F70B41298316881183128811003477
:10029000831688108312881009217808DD00DD1B81
:1002A0004C29DB08031959298316881083128814F6
:1002B0005D298316881083128810000083160811A8
:1002C00083120811000083168811831288115C0EB6
:1002D000DD000F30DD055D08DE001C215C080F39F4
:1002E000DD00DE001C210034580B77297A294030CC
:1002F000D9007B29D90101305702D9075908803824
:10030000DA00DB015A08DC00482100345730840051
:1003100083130008031999290630F800F701F70B39
:100320008F29F80B8E297B30F700F70B9529800B6E
:100330008C29003456080C3A0319A529063A0319EA
:10034000AD29023A0319B329B829DB010130DC00D9
:1003500048210230D7008621BE290130D700023063
:10036000D8007421BE29DB011030DC004821BE29F1
:100370000130DB005608DC004821BE290034290882
:10038000D9000A30DA00682030307707D200290817
:10039000D9000A30DA00682077082902D700D9008E
:1003A0006430DA0068207708D9000A30DA00682063
:1003B00030307807D3002908D9006430DA0068208B
:1003C00077082902D700DB015708DA000330DD0087
:1003D000E830DC007D207708D8007A08D900DB00FF
:1003E0007708DA00DD016430DC007D2030307807EA
:1003F000D400DB012908DA000330DD00E830DC003E
:100400007D2077082902D600D7017A08031C7A0FCD
:10041000D702E001DF015708DE005608DD00E401E5
:100420000130E3008630E200A030E100A2200008A5
:10043000D700840A0008D800840A0008D900840A7A
:100440000008DA00DC010408DB005C10831B5C148C
:100450005A08E0005908DF005808DE005708DD00A0
:10046000E401E3010330E200E830E100A2205B0890
:10047000840083135C18831730307707D500093068
:10048000D7000130D80074215508D6009A215408AD
:10049000D6009A215308D6009A215208D6009A21F4
:1004A00000341330AA0081018B1600348316061520
:1004B0008312061D692AAE18692AAE142E1C672AFB
:1004C0006220780B652AA90ABF212E10AE10512296
:1004D0007B2A831686148312861C7B2A2E187B2A7D
:1004E0002E14AE1C7A2A6220780B782AA903BF2129
:1004F0002E10AE1051220230D200FA30D7008621E1
:10050000D20B7D2A83168613831286170230D200FF
:10051000FA30D7008621D20B882A831686138312DD
:1005200086138B108A110A122128840183131F302D
:100530008305813083169900A6309800903083128D
:10054000980083161F149F141F159F1107309C00DD
:100550008312A9012E10AE10AF01B001FF30B90017
:1005600083161F109F141F159F151F1383121F132F
:100570009F1783169F1783121F1483160912831265
:100580009412B91239088316870083123916390874
:10059000831687008312B91139088316870000304B
:1005A00083129400831694000830F700F71DE32AA5
:1005B0000730831281018130840083130008C03921
:1005C0000F38800083166400813084000008C03931
:1005D00077048000831290010030F8009200003010
:1005E0008316920007309C0005081030F700F70BC7
:1005F000F72A00001C0883120D1383169D01831235
:100600000B16C0308B0483160117860183128601F6
:100610000030B900831687018312870107308316E3
:100620008600003087008312B90083168800F80026
:1006300083121F08C73978049F00A8018B1BA817D5
:100640008B131930D7008621A81B8B1783168810AF
:1006500083128810831608118312081183168811DB
:1006600083128811A8018B1BA8178B130F30D7009A
:100670008621A81B8B17BA013A08023C031C542B95
:10068000A8018B1BA8178B130330DE001C21A81BAD
:100690008B17A8018B1BA8178B130530D700862159
:1006A000A81B8B17BA0A3C2BA8018B1BA8178B130E
:1006B0000230DE001C21A81B8B17BA013A08033C4C
:1006C000031C712B3A083A20BB00A8018B1BA8170A
:1006D0008B13DB013B08DC004821A81B8B17BA0AEF
:1006E0005E2BA8018B1BA8178B130630D700862121
:1006F000A81B8B17A8018B1BA8178B130130D700E1
:10070000D8007421A81B8B17BA013A084220003880
:100710000319942BBA0AA8018B1BA8178B13D600B8
:100720009A21A81B8B17852BA8018B1BA8178B134D
:10073000D6009A21A81B8B17A8018B1BA8178B1317
:10074000BF21A81B8B17A8018B1BA8178B13013087
:10075000D7000230D8007421A81B8B17BA013A08C1
:100760004F2000380319BE2BBA0AA8018B1BA8170B
:100770008B13D6009A21A81B8B17AF2BA8018B1BBC
:10078000A8178B13D6009A21A81B8B17A908031D45
:10079000CF2B391039088316870083120714A8015C
:1007A0008B1BA8178B133008DB002F08DA00DD0144
:1007B0000A30DC007D20A81B8B1730307707BA0089
:1007C000A8018B1BA8178B133008DB002F08DA0059
:1007D000DD010A30DC007D20A81B8B1777082F0273
:1007E000BE003008BF007A08031C7A0FBF02A801C0
:1007F0008B1BA8178B133F08DB003E08DA00DD01D6
:100800006430DC007D20A81B8B177708BF007A08B6
:10081000C000A8018B1BA8178B137A08DB00770890
:10082000DA00DD010A30DC007D20A81B8B17303098
:100830007807BB00A8018B1BA8178B133008DB00BF
:100840002F08DA00DD016430DC007D20A81B8B1747
:1008500077082F02BE003008BF007A08031C7A0F09
:10086000BF02A8018B1BA8178B133F08DB003E08B3
:10087000DA000330DD00E830DC007D20A81B8B1798
:100880007708BF007A08C000A8018B1BA8178B133C
:100890007A08DB007708DA00DD016430DC007D20B7
:1008A000A81B8B1730307807BC00A8018B1BA8173A
:1008B0008B133008DB002F08DA000330DD00E8304E
:1008C000DC007D20A81B8B1777082F02BE003008A4
:1008D000BF007A08031C7A0FBF02A8018B1BA81760
:1008E0008B13E001DF013F08DE003E08DD00E4017C
:1008F0000130E3008630E200A030E100A220A81B16
:100900008B170008BF00840A0008C000840A000892
:10091000C100840A0008C200C4010408C3004410D6
:10092000831B4414A8018B1BA8178B134208E000FB
:100930004108DF004008DE003F08DD00E401E3017C
:100940000330E200E830E100A220A81B8B17430827
:10095000840083134418831730307707BD00A80143
:100960008B1BA8178B130430D7000230D8007421DA
:10097000A81B8B17A8018B1BA8178B133D08D6004B
:100980009A21A81B8B17A8018B1BA8178B133C0857
:10099000D6009A21A81B8B17A8018B1BA8178B13B5
:1009A0003B08D6009A21A81B8B17A8018B1BA81700
:1009B0008B133A08D6009A21A81B8B17CF2B630004
:02400E003A3F37
:00000001FF
;PIC16F877A
