:1000000000308A00F7290000FF00030E8301A100E1
:100010000A08A0008A010408A2007708A300780853
:10002000A4007908A5007A08A6007B08A70083131E
:1000300083128B1E1D280B193028220884002308E8
:10004000F7002408F8002508F9002608FA00270818
:10005000FB0020088A00210E8300FF0E7F0E09009E
:100060008A110A124F280A108A100A1182072834AE
:100070000C34013406340A108A100A1182076C34D9
:100080006534763465346C343A3400340A108A109E
:100090000A11820769346E3474343A340034AA0B7E
:1000A0005628AF0A0319B00A1330AA000B118A119F
:1000B0000A121D2883161F109F141F159F151F134A
:1000C00083121F139F1783169F1783121F14831603
:1000D000091283129412B71237088316870083120D
:1000E00037163708831687008312B711370883162F
:1000F0008700003083129400831694000830F700C4
:10010000F71D8D280730831281018130840083130D
:100110000008C0390F3880008316640081308400E5
:100120000008C03977048000831290010030F80085
:10013000920000308316920007309C0005081030B2
:10014000F700F70BA12800001C0883120D1383167B
:100150009D0183128B16C0308B0483168601831297
:1001600086010030B70083168701831287010130B2
:10017000831686001F3087008312B7000030831675
:100180008800F80083121F08C73978049F008A117D
:100190000A12182A3A308400831300080319DD2854
:1001A0000630F800F701F70BD328F80BD2287B3084
:1001B000F700F70BD928800BD02800344118E2282B
:1001C0000812E3280816831608128312C118EA28B9
:1001D0008812EB2888168316881283124119F22898
:1001E0000813F3280817831608138312C119FA2875
:1001F0008813FB2888178316881300008811831240
:1002000088150330F700F70B032983168811831232
:1002100088110034C20183168811831288150000EA
:100220008316081683124210081A42148316881681
:100230008312C210881AC21483160817831242113F
:10024000081B4215831688178312C211881BC2151A
:1002500083168811831288114208F800003483162F
:100260008810831288108316081183120815000065
:100270000A217808C1000A217808C000410EF70061
:10028000F030F70577084004F8007808C000C01B7C
:100290003329BE0803195129831688108312881444
:1002A00055298316881083128810000083160811C0
:1002B00083120811000083168811831288113F0EE3
:1002C000C0000F30C0054008C100DE203F080F39D4
:1002D000C000C100DE2000343B0B6F297229403082
:1002E000BC007329BC0101303A02BC073C088038CD
:1002F000BD00BE013D08BF002F21003439080C3A73
:1003000003198929063A03199129023A03199729F1
:100310009C29BE010130BF002F210230BA00CA2043
:10032000A2290130BA000230BB006C21A229BE0113
:100330001030BF002F21A2290130BE003908BF00B4
:100340002F21A22900341930BA00CA208316881040
:1003500083128810831608118312081183168811DE
:10036000831288110F30BA00CA20B8013808023C45
:10037000031CC2290330C100DE200530BA00CA20A8
:10038000B80AB6290230C100DE20B8013808033CA3
:10039000031CD32938083320B900BE013908BF0037
:1003A0002F21B80AC6290130BA00BB006C21B80160
:1003B00038083B2000380319E129B80AB9007E212A
:1003C000D829B9007E210130BA000230BB006C216F
:1003D000B8013808462000380319F229B80AB900D4
:1003E0007E21E929B9007E218A110A12192A840185
:1003F00083131F308305813083169900A63098003F
:1004000090308312980083161F149F141F159F119C
:1004100007309C0001308312A800A9012E10AE10F5
:10042000AF01B0012E11B501B601FF30B7005A2857
:10043000A329B7123708831687008312871637144B
:100440003708831687008312071C292AB5012E1549
:10045000542AB7143708831687008312871C342A5E
:100460000130B5002E15542A37153708831687003A
:100470008312071D3F2A0230B5002E15542AB715E6
:100480003708831687008312871D4A2A0330B50078
:100490002E15542A37163708831687008312071E35
:1004A000542A0430B5002E15831606148312061C38
:1004B0009A2A2E1D9A2A2E11B60A3508FB3E0318D9
:1004C0009A2A053E9C2A83160611831206159A2A3B
:1004D0000830BA00CA2083160611831206110230B2
:1004E000BA00CA2083160611831206159A2A05300F
:1004F000BA00CA2083160611831206110530BA000D
:10050000CA2083160611831206159A2A0230BA00F1
:10051000CA2083160611831206110830BA00CA20B9
:1005200083160611831206159A2A83160611831262
:1005300006119A2A1F2A63000A108A140A118207D8
:0A054000632A682A772A862A952A82
:02400E003A3F37
:00000001FF
;PIC16F877A
