:1000000000308A00AA2A0000FF00030E8301A1002D
:100010000A08A0008A010408A2007708A300780853
:10002000A4007908A5007A08A6007B08A70083131E
:1000300083128B1E1D280B1934280B1E21288B18A8
:100040003728220884002308F7002408F800250830
:10005000F9002608FA002708FB0020088A00210E74
:100060008300FF0E7F0E09008A110A1256288A119A
:100070000A1261280A108A100A11820728340C34E7
:10008000013406340A108A100A1182076C34653470
:10009000763465346C343A3400340A108A100A110C
:1000A000820769346E3474343A340034AA0B5D2804
:1000B000AF0A0319B00A1330AA000B118A110A12F1
:1000C0002128B60A8B108A110A12212883161F10C4
:1000D0009F141F159F151F1383121F139F1783163D
:1000E0009F1783121F148316091283129412B712DA
:1000F0003708831687008312371637088316870060
:100100008312B711370883168700003083129400DA
:10011000831694000830F700F71D992807308312E2
:1001200081018130840083130008C0390F388000BA
:1001300083166400813084000008C0397704800091
:10014000831290010030F800920000308316920074
:1001500007309C0005081030F700F70BAD280000B1
:100160001C0883120D1383169D0183128B160B1628
:10017000C0308B048316011786018312860100307C
:10018000B7008316870183128701413083168600EA
:100190001F3087008312B700003083168800F800F4
:1001A00083121F08C73978049F008A110A12CA2ACD
:1001B00041308400831300080319EB280630F8004F
:1001C000F701F70BE128F80BE0287B30F700F70B7D
:1001D000E728800BDE2800344818F0280812F128A0
:1001E0000816831608128312C818F8288812F928EE
:1001F00088168316881283124819002908130129CA
:100200000817831608138312C819082988130929A7
:10021000881783168813000088118312881503300D
:10022000F700F70B11298316881183128811003407
:10023000C9018316881183128815000083160816D9
:1002400083124910081A4914831688168312C9109C
:10025000881AC9148316081783124911081B4915F7
:10026000831688178312C911881BC9158316881134
:10027000831288114908F80000348316881083120D
:1002800088108316081183120815000018217808B9
:10029000C80018217808C700480EF700F030F705AD
:1002A00077084704F8007808C700C71B4129C5082C
:1002B00003195F2983168810831288146329831613
:1002C0008810831288100000831608118312081109
:1002D00000008316881183128811460EC7000F3064
:1002E000C7054708C800EC2046080F39C700C800FA
:1002F000EC200034420B7D2980294030C300812945
:10030000C30101304102C30743088038C400C5015E
:100310004408C6003D21003440080C3A03199729CF
:10032000063A03199F29023A0319A529AA29C501EA
:100330000130C6003D210230C100D820B029013073
:10034000C1000230C2007A21B029C5011030C600B8
:100350003D21B0290130C5004008C6003D21B0292B
:1003600000341930C100D8208316881083128810F9
:1003700083160811831208118316881183128811BD
:100380000F30C100D820B8013808023C031CD02926
:100390000330C800EC200530C100D820B80AC429B9
:1003A0000230C800EC20B8013808033C031CE129E6
:1003B00038083A20B900C5013908C6003D21B80AFD
:1003C000D4290130C100C2007A21B8013808422086
:1003D00000380319EF29B80AC0008C21E629C000B3
:1003E0008C210130C1000230C2007A21B8013808E6
:1003F0004D2000380319002AB80AC0008C21F729C3
:10040000C0008C218A110A12CB2AF801F901F701E8
:10041000FA014508031D0F2A44080319292A103040
:10042000C6000310C20DC30DF70DFA0D45087A0280
:10043000031D1C2A44087702031C252A4408F702DE
:10044000031CFA034508FA020314F80DF90DC60B54
:10045000112A003430303F07F8004008FA00031832
:10046000FA0A780800343908C3003808C200C50108
:100470000A30C40005227708BC003908C3003808D8
:10048000C200C5010A30C400052277083802BF0047
:100490003908C0007A08031C7A0FC0024008C30064
:1004A0003F08C200C5016430C40005227708C000BF
:1004B0007A08C100C3007708C200C5010A30C40031
:1004C00005227808BD003908C3003808C200C501FC
:1004D0006430C400052277083802BF003908C00024
:1004E0007A08031C7A0FC0024008C3003F08C2000C
:1004F0000330C500E830C40005227708C0007A0840
:10050000C100C3007708C200C5016430C4000522E1
:100510007808BE003A08C1003B08C2007A21C00139
:100520003E08BF002A227808BF00C0008C21C0010D
:100530003D08BF002A227808BF00C0008C21C001FE
:100540003C08BF002A227808BF00C0008C218A1115
:100550000A12DD2A840183131F308305813083163C
:100560009900A630980090308312980083161F14CB
:100570009F141F159F1107309C0001308312A800A3
:10058000A9012E10AE10AF01B001B500B601FF30C9
:10059000B7006628B1293008033C031CDD2A031D7F
:1005A000D52A2F08E83C031CDD2AB9013608B8001B
:0E05B0000530BA000230BB00332ACB2A6300AC
:02400E003A3F37
:00000001FF
;PIC16F877A
