:1000000000308A003E2B0000FF00030E8301A10098
:100010000A08A0008A010408A2007708A300780853
:10002000A4007908A5007A08A6007B08A70083131E
:1000300083128B1E1D280B1934280B1E21288B18A8
:100040003728220884002308F7002408F800250830
:10005000F9002608FA002708FB0020088A00210E74
:100060008300FF0E7F0E09008A110A1294288A115C
:100070000A12D2280A108A100A11820728340C3476
:10008000013406340A108A100A1182072A342A34ED
:100090002A342A342A34433453344534273431340F
:1000A00030342A342A342A342A342A3400340A10C8
:1000B0008A100A1182077C347C347C347C347C3492
:1000C0007C347C347C347C347C347C347C347C34B0
:1000D0007C347C347C3400340A108A100A11820784
:1000E0000C344E3475346D346234653472344934B2
:1000F0006E3473346934643465343A3400340A102D
:100100008A100A118207543465346D3470346534B2
:100110007234613474347534723465343A34203452
:100120002034203443340034AC0B9B28B00A03192C
:10013000B10A1330AC000B118A110A1221283108C0
:10014000073C031CB428031DA9283008D03C031C1D
:10015000B428B108031DB0283008033C0318B428A4
:100160000130F800B728B7280030F800B72800346D
:100170001330AC008101B101B00100344D30840076
:10018000831300080319D1280630F800F701F70B94
:10019000C728F80BC6287B30F700F70BCD28800B5B
:1001A000C4280034831606158312061DE528AB15F6
:1001B0002B1DE3289F20780BE128A90A0319AA0A1E
:1001C0002B142B11AB11B820F82883168614831238
:1001D000861CF8282B15AB1DF7289F20780BF528D7
:1001E00029080319AA03A9032B142B11AB11B8205A
:1001F0000130CD00BE208B108A110A1221288316EF
:100200001F109F141F159F151F1383121F139F1775
:1002100083169F1783121F148316091283129412D8
:10022000BA123A088316870083123A163A088316E0
:1002300087008312BA113A088316870000308312B0
:100240009400831694000830F700F71D3229073018
:10025000831281018130840083130008C0390F3874
:10026000800083166400813084000008C039770460
:100270008000831290010030F80092000030831655
:10028000920007309C0005081030F700F70B462954
:1002900000001C0883120D1383169D0183128B1618
:1002A0000B16C0308B04831601178601831286015A
:1002B0000030BA0083168701831287014730831606
:1002C0008600003087008312BA0083168800F80089
:1002D00083121F08C73978049F008A110A12602B05
:1002E0004B187429081275290816831608128312F0
:1002F000CB187C2988127D298816831688128312D0
:100300004B198429081385290817831608138312AB
:10031000CB198C2988138D29881783168813000020
:100320008811831288150330F700F70B952983167F
:100330008811831288110034CC018316881183122E
:10034000881500008316081683124C10081A4C14E6
:10035000831688168312CC10881ACC1483160817BB
:1003600083124C11081B4C15831688178312CC116D
:10037000881BCC1583168811831288114C08F8004D
:100380000034831688108312881083160811831294
:10039000081500009C217808CB009C217808CA0031
:1003A0004B0EF700F030F70577084A04F80078089C
:1003B000CA00CA1BC529C8080319E3298316881077
:1003C00083128814E729831688108312881000008E
:1003D00083160811831208110000831688118312F6
:1003E0008811490ECA000F30CA054A08CB00702197
:1003F00049080F39CA00CB0070210034450B012A8F
:10040000042A4030C600052AC60101304402C6074E
:1004100046088038C700C8014708C900C121003418
:1004200043080C3A03191B2A063A0319292A023AEF
:1004300003192F2A342AC8010130C900C121A8019B
:100440008B1BA8178B130230CD00BE20A81B8B1767
:100450003A2A0130C4000230C500FE213A2AC80100
:100460001030C900C1213A2A0130C8004308C90030
:10047000C1213A2A0034F801F901F701FA014808CC
:10048000031D452A470803195F2A1030C9000310CD
:10049000C50DC60DF70DFA0D48087A02031D522A44
:1004A00047087702031C5B2A4708F702031CFA037C
:1004B0004808FA020314F80DF90DC90B472A003455
:1004C00030304207F8004308FA000318FA0A7808A7
:1004D00000343C08C6003B08C500C8010A30C7000C
:1004E0003B227708BF003C08C6003B08C500C80196
:1004F0000A30C7003B2277083B02C2003C08C30019
:100500007A08031C7A0FC3024308C6004208C500DC
:10051000C8016430C7003B227708C3007A08C400D2
:10052000C6007708C500C8010A30C7003B2278081A
:10053000C0003C08C6003B08C500C8016430C700C5
:100540003B2277083B02C2003C08C3007A08031C28
:100550007A0FC3024308C6004208C5000330C80032
:10056000E830C7003B227708C3007A08C400C60001
:100570007708C500C8016430C7003B227808C10075
:100580003D08C4003E08C500FE21C3014108C20069
:1005900060227808C200C3001022C3014008C200D4
:1005A00060227808C200C3001022C3013F08C200C5
:1005B00060227808C200C300102200341030BF004F
:1005C000F701FA01BC0CBB0C031CEC2A3D08F70731
:1005D0000318FA0A3E08FA07FA0CF70CF90CF80CA3
:1005E000BF0BE22A8A110A12222B0230BB00A8019B
:1005F0008B1BA8178B13FA30CD00BE20A81B8B17BE
:10060000BB0BF72A3708B9003608B8001F151F19A9
:10061000072B83161E088312B6001E08B700360883
:100620003802031D172B3708390203193B2BB5017C
:100630000130B4003708BC003608BB00BE0196305C
:10064000BD00DE2A7908BC007808BB007908C60026
:100650007808C5000130C8003330C7003B22790854
:10066000FA007808F7007908F800F901FA0178082B
:10067000B3007708B2008A110A121F2C8401831379
:100680001F308305813083169900A6309800903082
:100690008312980083161F149F141F159F11073093
:1006A0009C008312A901AA012B10AB142B11AB11D2
:1006B000B001B1010130B400B501FF30BA00FF282C
:1006C000A8018B1BA8178B131930CD00BE20A81BC7
:1006D0008B178316881083128810831608118312D3
:1006E00008118316881183128811A8018B1BA81783
:1006F0008B130F30CD00BE20A81B8B17BB013B080E
:10070000023C031C912B0330CB007021A8018B1BF2
:10071000A8178B130530CD00BE20A81B8B17BB0A72
:100720007F2B0230CB007021BB013B08033C031C34
:10073000A22B3B083A20BC00C8013C08C900C121DB
:10074000BB0A952B0130C400C500FE21BB013B084C
:10075000422000380319B02BBB0AC3001022A72B7C
:10076000C30010220130C4000230C500FE21BB01CD
:100770003B08572000380319C12BBB0AC3001022C5
:10078000B82BC30010220830BB00A8018B1BA81790
:100790008B13FA30CD00BE20A81B8B17BB0BC52BCB
:1007A0000130C400C500FE21BB013B086C200038AD
:1007B0000319DE2BBB0AC3001022D52BC300102265
:1007C0002A08BC002908BB000E30BD000130BE0065
:1007D00069220130C4000230C500FE21BB013B0884
:1007E0007F2000380319F82BBB0AC3001022EF2B1F
:1007F000C30010221F151F19FB2B83161E0883121E
:10080000B6001E08B7003A103A0883168700831214
:1008100007143A113A088316870083120715BA1194
:100820003A0883168700831287112A08BC0029081A
:10083000BB000E30BD000130BE006922F52A34082D
:10084000350403192E2C3308BC003208BB000D30D0
:10085000BD000230BE006922B501B401152C630051
:02400E003A3F37
:00000001FF
;PIC16F877A
