:1000000000308A00A82A0000FF00030E8301A1002F
:100010000A08A0008A010408A2007708A300780853
:10002000A4007908A5007A08A6007B08A70083131E
:1000300083128B1E1D280B1934280B1E21288B18A8
:100040003728220884002308F7002408F800250830
:10005000F9002608FA002708FB0020088A00210E74
:100060008300FF0E7F0E09008A110A1256288A119A
:100070000A1261280A108A100A11820728340C34E7
:10008000013406340A108A100A1182076C34653470
:10009000763465346C343A3400340A108A100A110C
:1000A000820769346E3474343A340034AA0B5D2804
:1000B000AF0A0319B00A1330AA000B118A110A12F1
:1000C00021288B108A110A12212883161F109F14D1
:1000D0001F159F151F1383121F139F1783169F173A
:1000E00083121F148316091283129412B712370851
:1000F000831687008312371637088316870083120A
:10010000B7113708831687000030831294008316D6
:1001100094000830F700F71D9828073083128101FA
:100120008130840083130008C0390F3880008316A3
:100130006400813084000008C03977048000831295
:1001400090010030F80092000030831692000730D2
:100150009C0005081030F700F70BAC2800001C08C5
:1001600083120D1383169D0183128B16C0308B04EE
:10017000831601178601831286010030B7008316AB
:100180008701831287010130831686001F308700A4
:100190008312B700003083168800F80083121F080E
:1001A000C73978049F008A110A12C92A4130840095
:1001B000831300080319E9280630F800F701F70B4C
:1001C000DF28F80BDE287B30F700F70BE528800BE3
:1001D000DC2800344818EE280812EF280816831689
:1001E00008128312C818F6288812F7288816831672
:1001F000881283124819FE280813FF28081783164F
:1002000008138312C819062988130729881783162B
:10021000881300008811831288150330F700F70B4C
:100220000F2983168811831288110034C90183169F
:10023000881183128815000083160816831249104E
:10024000081A4914831688168312C910881AC9140B
:100250008316081783124911081B4915831688173E
:100260008312C911881BC91583168811831288113E
:100270004908F8000034831688108312881083160A
:10028000081183120815000016217808C8001621ED
:100290007808C700480EF700F030F70577084704E4
:1002A000F8007808C700C71B3F29C50803195D2956
:1002B000831688108312881461298316881083128C
:1002C000881000008316081183120811000083169D
:1002D000881183128811460EC7000F30C7054708E2
:1002E000C800EA2046080F39C700C800EA200034D9
:1002F000420B7B297E294030C3007F29C301013096
:100300004102C30743088038C400C5014408C60041
:100310003B21003440080C3A03199529063A031989
:100320009D29023A0319A329A829C5010130C60055
:100330003B210230C100D620AE290130C10002307D
:10034000C2007821AE29C5011030C6003B21AE297C
:100350000130C5004008C6003B21AE2900341930E9
:10036000C100D620831688108312881083160811C6
:100370008312081183168811831288110F30C1006F
:10038000D620B8013808023C031CCE290330C8002F
:10039000EA200530C100D620B80AC2290230C800C0
:1003A000EA20B8013808033C031CDF2938083A204A
:1003B000B900C5013908C6003B21B80AD22901306D
:1003C000C100C2007821B801380842200038031962
:1003D000ED29B80AC0008A21E429C0008A21013031
:1003E000C1000230C2007821B80138084D20003821
:1003F0000319FE29B80AC0008A21F529C0008A2104
:100400008A110A12CA2AF801F901F701FA0145080E
:10041000031D0D2A44080319272A1030C6000310B3
:10042000C20DC30DF70DFA0D45087A02031D1A2AF5
:1004300044087702031C232A4408F702031CFA032A
:100440004508FA020314F80DF90DC60B0F2A003403
:1004500030303F07F8004008FA000318FA0A78081D
:1004600000343908C3003808C200C5010A30C4008E
:1004700003227708BC003908C3003808C200C50150
:100480000A30C400032277083802BF003908C000D0
:100490007A08031C7A0FC0024008C3003F08C2005C
:1004A000C5016430C40003227708C0007A08C10087
:1004B000C3007708C200C5010A30C40003227808CF
:1004C000BD003908C3003808C200C5016430C4004B
:1004D000032277083802BF003908C0007A08031CDD
:1004E0007A0FC0024008C3003F08C2000330C500B5
:1004F000E830C40003227708C0007A08C100C300B6
:100500007708C200C5016430C40003227808BE0029
:100510003A08C1003B08C2007821C0013E08BF0074
:1005200028227808BF00C0008A21C0013D08BF0012
:1005300028227808BF00C0008A21C0013C08BF0003
:1005400028227808BF00C0008A218A110A12EC2AEA
:10055000840183131F308305813083169900A630F0
:10056000980090308312980083161F149F141F1553
:100570009F1107309C0001308312A800A9012E10A2
:10058000AE10AF01B0012E15B500B601FF30B700B7
:100590006528AF293008033C031CE42A031DD42A34
:1005A0002F08E83C031CE42A831606148312061C59
:1005B000DD2A2E1DDD2A2E11B60A8316061483129B
:1005C0000618E32A2E15CA2AB9013608B8000530E4
:1005D000BA000230BB00312A1430B800FA30C10032
:0805E000D620B80BEE2A6300DF
:02400E003A3F37
:00000001FF
;PIC16F877A
