:1000000000308A00F52A0000FF00030E8301A100E2
:100010000A08A0008A010408A2007708A300780853
:10002000A4007908A5007A08A6007B08A70083131E
:1000300083128B1E1D280B1934280B1E21288B18A8
:100040003728220884002308F7002408F800250830
:10005000F9002608FA002708FB0020088A00210E74
:100060008300FF0E7F0E09008A110A1294288A115C
:100070000A12D2280A108A100A11820728340C3476
:10008000013406340A108A100A1182072A342A34ED
:100090002A342A342A34433453344534273431340F
:1000A00030342A342A342A342A342A3400340A10C8
:1000B0008A100A1182077C347C347C347C347C3492
:1000C0007C347C347C347C347C347C347C347C34B0
:1000D0007C347C347C3400340A108A100A11820784
:1000E0000C344E3475346D346234653472344934B2
:1000F0006E3473346934643465343A3400340A102D
:100100008A100A118207543465346D3470346534B2
:100110007234613474347534723465343A34203452
:100120002034203443340034AB0B9B28B00A03192D
:10013000B10A1330AB000B118A110A1221283108C1
:10014000073C031CB428031DA9283008D03C031C1D
:10015000B428B108031DB0283008033C0318B428A4
:100160000130F800B728B7280030F800B72800346D
:100170001330AB008101B101B00100344B30840079
:10018000831300080319D1280630F800F701F70B94
:10019000C728F80BC6287B30F700F70BCD28800B5B
:1001A000C4280034831606158312061DE528AF14F3
:1001B0002F1CE3289F20780BE128A90A0319AA0A1B
:1001C000AF152F10AF10B820F828831686148312AD
:1001D000861CF8282F14AF1CF7289F20780BF528D1
:1001E00029080319AA03A903AF152F10AF10B820CF
:1001F0000130CB00BE208B108A110A1221288316F1
:100200001F109F141F159F151F1383121F139F1775
:1002100083169F1783121F148316091283129412D8
:10022000B8123808831687008312381638088316E8
:1002300087008312B81138088316870000308312B4
:100240009400831694000830F700F71D3229073018
:10025000831281018130840083130008C0390F3874
:10026000800083166400813084000008C039770460
:100270008000831290010030F80092000030831655
:10028000920007309C0005081030F700F70B462954
:1002900000001C0883120D1383169D0183128B1618
:1002A0000B16C0308B04831601178601831286015A
:1002B0000030B80083168701831287010730831648
:1002C0008600003087008312B80083168800F8008B
:1002D00083121F08C73978049F008A110A12172B4E
:1002E00049187429081275290816831608128312F2
:1002F000C9187C2988127D298816831688128312D2
:1003000049198429081385290817831608138312AD
:10031000C9198C2988138D29881783168813000022
:100320008811831288150330F700F70B952983167F
:100330008811831288110034CA0183168811831230
:10034000881500008316081683124A10081A4A14EA
:10035000831688168312CA10881ACA1483160817BF
:1003600083124A11081B4A15831688178312CA1173
:10037000881BCA1583168811831288114A08F80051
:100380000034831688108312881083160811831294
:10039000081500009C217808C9009C217808C80035
:1003A000490EF700F030F70577084804F8007808A0
:1003B000C800C81BC529C6080319E329831688107D
:1003C00083128814E729831688108312881000008E
:1003D00083160811831208110000831688118312F6
:1003E0008811470EC8000F30C8054808C9007021A1
:1003F00047080F39C800C90070210034430B012A97
:10040000042A4030C400052AC40101304202C40756
:1004100044088038C500C6014508C700C121003422
:1004200041080C3A03191B2A063A0319292A023AF1
:1004300003192F2A342AC6010130C700C121A8019F
:100440008B1BA8178B130230CB00BE20A81B8B1769
:100450003A2A0130C2000230C300FE213A2AC60106
:100460001030C700C1213A2A0130C6004108C70038
:10047000C1213A2A0034F801F901F701FA014608CE
:10048000031D452A450803195F2A1030C7000310D1
:10049000C30DC40DF70DFA0D46087A02031D522A4A
:1004A00045087702031C5B2A4508F702031CFA0380
:1004B0004608FA020314F80DF90DC70B472A003459
:1004C00030304007F8004108FA000318FA0A7808AB
:1004D00000343A08C4003908C300C6010A30C50018
:1004E0003B227708BD003A08C4003908C300C601A2
:1004F0000A30C5003B2277083902C0003A08C10023
:100500007A08031C7A0FC1024108C4004008C300E6
:10051000C6016430C5003B227708C1007A08C200DA
:10052000C4007708C300C6010A30C5003B22780822
:10053000BE003A08C4003908C300C6016430C500D3
:100540003B2277083902C0003A08C1007A08031C30
:100550007A0FC1024108C4004008C3000330C6003E
:10056000E830C5003B227708C1007A08C200C40009
:100570007708C300C6016430C5003B227808BF007D
:100580003B08C2003C08C300FE21C1013F08C00077
:1005900060227808C000C1001022C1013E08C000DE
:1005A00060227808C000C1001022C1013D08C000CF
:1005B00060227808C000C100102200341030BD0055
:1005C000F701FA01BA0CB90C031CEC2A3B08F70737
:1005D0000318FA0A3C08FA07FA0CF70CF90CF80CA5
:1005E000BD0BE22A8A110A12F92B840183131F30F2
:1005F0008305813083169900A630980090308312CD
:10060000980083161F149F141F159F1107309C001C
:100610008312A901AA012F10AF102F15AF152F16A5
:10062000B001B101B601B701FF30B800FF28A80141
:100630008B1BA8178B131930CB00BE20A81B8B1760
:1006400083168810831288108316081183120811EC
:100650008316881183128811A8018B1BA8178B138E
:100660000F30CB00BE20A81B8B17B9013908023C04
:10067000031C482B0330C9007021A8018B1BA8174D
:100680008B130530CB00BE20A81B8B17B90A362B65
:100690000230C9007021B9013908033C031C592BF1
:1006A00039083A20BA00C6013A08C700C121B90A80
:1006B0004C2B0130C200C300FE21B9013908422091
:1006C00000380319672BB90AC10010225E2BC10044
:1006D00010220130C2000230C300FE21B9013908E6
:1006E000572000380319782BB90AC10010226F2B4C
:1006F000C10010220830B900A8018B1BA8178B136A
:10070000FA30CB00BE20A81B8B17B90B7C2B013015
:10071000C200C300FE21B90139086C20003803195A
:10072000952BB90AC10010228C2BC10010222A0877
:10073000BA002908B9000E30BB000130BC006922A4
:100740000130C2000230C300FE21B90139087F2008
:1007500000380319AF2BB90AC1001022A62BC10023
:1007600010223810380883168700831207143811B6
:1007700038088316870083120715B81138088316C6
:100780008700831287112A08BA002908B9000E30A1
:10079000BB000130BC0069220430B900A8018B1BEA
:1007A000A8178B13FA30CB00BE20A81B8B17B90BF0
:1007B000CE2B1F151F19DA2B83161E088312B400C7
:1007C0001E08B50034083602031DEC2B350837022D
:1007D000031DEC2B2F12F12B3508B7003408B6009F
:1007E0002F163508BA003408B900BC019630BB009A
:1007F000DE2A7908BA007808B9007908C4007808B8
:10080000C3000130C6003330C5003B227908FA002E
:100810007808F7007908F800F901FA017808F9007A
:100820007708F8007908B3007808B2003308BA00F6
:100830003208B9000D30BB000230BC006922C32B66
:02084000630053
:02400E003A3F37
:00000001FF
;PIC16F877A
