:1000000000308A001E2B0000FF00030E8301A100B8
:100010000A08A0008A010408A2007708A300780853
:10002000A4007908A5007A08A6007B08A70083131E
:1000300083128B1E1D280B1934280B1E21288B18A8
:100040003728220884002308F7002408F800250830
:10005000F9002608FA002708FB0020088A00210E74
:100060008300FF0E7F0E09008A110A1294288A115C
:100070000A12C22A0A108A100A11820728340C3484
:10008000013406340A108A100A1182072A342A34ED
:100090002A342A342A34433453344534273431340F
:1000A00030342A342A342A342A342A3400340A10C8
:1000B0008A100A1182077C347C347C347C347C3492
:1000C0007C347C347C347C347C347C347C347C34B0
:1000D0007C347C347C3400340A108A100A11820784
:1000E0000C344E3475346D346234653472344934B2
:1000F0006E3473346934643465343A3400340A102D
:100100008A100A118207543465346D3470346534B2
:100110007234613474347534723465343A34203452
:100120002034203443340034AB0B9B28B00A03192D
:10013000B10A1330AB000B118A110A1221283108C1
:10014000033C031CB428031DA9283008E83C031C09
:10015000B428B108031DB0283008003C0318B428A7
:100160000130F800C628C6283108023C0318C3280D
:10017000FF3A031DBF283008E83C0318C3280230AB
:10018000F800C628C6280030F800C6280034F80158
:10019000F901F701FA015508031DD1285408031984
:1001A000EB281030D6000310D20DD30DF70DFA0D49
:1001B00055087A02031DDE2854087702031CE7283D
:1001C0005408F702031CFA035508FA020314F80D49
:1001D000F90DD60BD3280034F701F801F901FA0123
:1001E000DE01DF01E001E1015D085C045B045A040B
:1001F00003192A292030E2000310D60DD70DD80D9F
:10020000D90DDE0DDF0DE00DE10D5D086102031D6E
:1002100013295C086002031D13295B085F02031D9C
:1002200013295A085E02031C24295A08DE025B08BF
:10023000031C5B0FDF025C08031C5C0FE0025D081F
:10024000031C5D0FE1020314F70DF80DF90DFA0D13
:10025000E20BFC285E30840083130034D80183163F
:10026000881183128815000083160816831258100F
:10027000081A5814831688168312D810881AD814AE
:100280008316081783125811081B581583168817F0
:100290008312D811881BD8158316881183128811F0
:1002A0005808F8000034831608118312081500005E
:1002B0002E217808D7002E217808D600570EF70097
:1002C000F030F70577085604F800003457186A290B
:1002D00008126B290816831608128312D718722980
:1002E00088127329881683168812831257197A295F
:1002F00008137B290817831608138312D71982293C
:1003000088138329881783168813000088118312A5
:1003100088150330F700F70B8B2983168811831299
:1003200088110034831688108312881053217808AE
:10033000D600D61B9629D4080319A3298316881042
:1003400083128814A729831688108312881000004E
:100350008316081183120811000083168811831276
:100360008811550ED6000F30D6055608D7006621E5
:1003700055080F39D600D70066210034510BC1292A
:10038000C4294030D200C529D20101305002D20721
:1003900052088038D300D4015308D500922100348C
:1003A00050308400831300080319E3290630F80055
:1003B000F701F70BD929F80BD8297B30F700F70B99
:1003C000DF29800BD62900344F080C3A0319EF2996
:1003D000063A0319F729023A0319FD29022AD40122
:1003E0000130D50092210230D000D021082A0130FE
:1003F000D0000230D100BE21082AD4011030D5002F
:100400009221082A0130D4004F08D5009221082AF1
:1004100000343108D3003008D200D5010A30D400AE
:10042000C72030307707CB003108D3003008D20026
:10043000D5010A30D400C72077083002CF00310838
:10044000D0007A08031C7A0FD0025008D3004F085E
:10045000D200D5016430D400C7207708D0007A08D4
:10046000D100D3007708D200D5010A30D400C720CC
:1004700030307807CC003108D3003008D200D501E5
:100480006430D400C72077083002CF003108D00094
:100490007A08031C7A0FD0025008D3004F08D2000C
:1004A0000330D500E830D400C7207708D0007A08A0
:1004B000D100D3007708D200D5016430D400C72022
:1004C00030307807CD003108D3003008D200033037
:1004D000D500E830D400C72077083002CF003108BB
:1004E000D0007A08031C7A0FD002D901D801500835
:1004F000D7004F08D600DD010130DC008630DB007C
:10050000A030DA00EC200008D000840A0008D100F6
:10051000840A0008D200840A0008D300D501040828
:10052000D4005510831B55145308D9005208D80025
:100530005108D7005008D600DD01DC010330DB0094
:10054000E830DA00EC205408840083135518831730
:1005500030307707CE000130D000D100BE214E08E8
:10056000CF00E4214D08CF00E4214C08CF00E42166
:100570004B08CF00E42100341330AB008101B101FE
:10058000B0010034831606158312061DDF2AAF144E
:100590009F207808023C031DD12A2F1CD12A092252
:1005A0002F102F1CDD2A9F20780BDB2A0922A90A95
:1005B0000319AA0AAF152F10AF10BC22022B831605
:1005C00086148312861C022B2F149F207808023C6D
:1005D000031DEE2AAF1CEE2A0922AF10AF1C012B1F
:1005E0009F20780BFF2AA908031DF92AAA080319DE
:1005F000FF2A092229080319AA03A903AF152F10FE
:10060000AF10BC228B108A110A122128303040070B
:10061000F8004108FA000318FA0A78080034033099
:10062000BA02031C1D2B3A308400831300080319FF
:100630001D2B1B2B1B2B800B1A2B003484018313C7
:100640001F308305813083169900A63098009030C2
:100650008312980083161F149F141F159F110730D3
:100660009C008312A901AA012F10AF102F15AF15FE
:10067000B001B101B201B3011530B400B501FF30D2
:10068000B80083161F109F141F159F151F13831288
:100690001F139F1783169F1783121F1483160912A7
:1006A00083129412B8123808831687008312381602
:1006B0003808831687008312B8113808831687001C
:1006C000003083129400831694000830F700F71D61
:1006D000742B07308312810181308400831300085A
:1006E000C0390F3880008316640081308400000810
:1006F000C03977048000831290010030F800920026
:1007000000308316920007309C0005081030F70077
:10071000F70B882B00001C0883120D1383169D0114
:1007200083128B160B16C0308B04831601178601BB
:10073000831286010030B800831687018312870177
:10074000473083168600003087008312B800831676
:100750008800F80083121F08C73978049F00A80199
:100760008B1BA8178B131930D000D021A81B8B1717
:1007700083168810831288108316081183120811BB
:100780008316881183128811A8018B1BA8178B135D
:100790000F30D000D021A81B8B17B9013908023CBB
:1007A000031CE62BA8018B1BA8178B130330D70063
:1007B0006621A81B8B17A8018B1BA8178B1305306C
:1007C000D000D021A81B8B17B90ACE2BA8018B1BF8
:1007D000A8178B130230D7006621A81B8B17B9010D
:1007E0003908033C031C032C39083A20BA00A8013D
:1007F0008B1BA8178B13D4013A08D5009221A81B94
:100800008B17B90AF02BA8018B1BA8178B1301308B
:10081000D000D100BE21A81B8B17B9013908422096
:10082000003803191D2CB90AA8018B1BA8178B13BC
:10083000CF00E421A81B8B170E2CA8018B1BA81737
:100840008B13CF00E421A81B8B17A8018B1BA817C3
:100850008B130130D0000230D100BE21A81B8B17B2
:10086000B9013908572000380319402CB90AA801EA
:100870008B1BA8178B13CF00E421A81B8B17312CDF
:10088000A8018B1BA8178B13CF00E421A81B8B1783
:100890000830B900A8018B1BA8178B13FA30D000C1
:1008A000D021A81B8B17B90B4A2CA8018B1BA817AA
:1008B0008B130130D000D100BE21A81B8B17B901CA
:1008C00039086C20003803196F2CB90AA8018B1B5A
:1008D000A8178B13CF00E421A81B8B17602CA8014D
:1008E0008B1BA8178B13CF00E421A81B8B172A089A
:1008F000BA002908B9000E30BB000130BC00A801C5
:100900008B1BA8178B133A08D3003908D200D501E6
:100910000A30D400C720A81B8B177708BD00A80198
:100920008B1BA8178B133A08D3003908D200D501C6
:100930000A30D400C720A81B8B1777083902C000E3
:100940003A08C1007A08031C7A0FC102A8018B1B68
:10095000A8178B134108D3004008D200D50164309A
:10096000D400C720A81B8B177708C1007A08C200E3
:10097000A8018B1BA8178B137A08D3007708D20025
:10098000D5010A30D400C720A81B8B177808BE00F9
:10099000A8018B1BA8178B133A08D3003908D20083
:1009A000D5016430D400C720A81B8B177708390203
:1009B000C0003A08C1007A08031C7A0FC102A801DE
:1009C0008B1BA8178B134108D3004008D2000330BB
:1009D000D500E830D400C720A81B8B177708C100CA
:1009E0007A08C200A8018B1BA8178B137A08D300C2
:1009F0007708D200D5016430D400C720A81B8B171C
:100A00007808BF00A8018B1BA8178B133B08D000E8
:100A10003C08D100BE21A81B8B17C1013F08C000B4
:100A200006237808C000A8018B1BA8178B13780831
:100A3000CF00E421A81B8B17C1013E08C00006238C
:100A40007808C000A8018B1BA8178B137808CF006B
:100A5000E421A81B8B17C1013D08C00006237808BC
:100A6000C000A8018B1BA8178B137808CF00E421C6
:100A7000A81B8B17A8018B1BA8178B130130D00064
:100A80000230D100BE21A81B8B17B90139087F2085
:100A900000380319552DB90AA8018B1BA8178B1311
:100AA000CF00E421A81B8B17462DA8018B1BA8178C
:100AB0008B13CF00E421A81B8B173810380883163E
:100AC00087008312071438113808831687008312B1
:100AD0000715B81138088316870083128711A908F3
:100AE000031D7A2DAA08031D7A2D831686138312FF
:100AF0008617142E831606178312061F0E2E2F1D1F
:100B00000E2EB508031D8D2D3408133C031C8D2DAE
:100B100083168613831286170D2EB508031D942D98
:100B20003408133C0318B42DB508031DB42D340844
:100B3000183C031CB42DA8018B1BA8178B1306307F
:100B4000D000D021A81B8B1783168613831286131F
:100B50000230B900F930BA000F23B90BAA2D831661
:100B60008613831286170D2EB508031DBB2D34087E
:100B7000183C0318DB2DB508031DDB2D34081A3C87
:100B8000031CDB2DA8018B1BA8178B130530D0008D
:100B9000D021A81B8B17831686138312861302306D
:100BA000B900F930BA000F23B90BD12D8316861383
:100BB000831286170D2EB508031DE22D34081A3C4A
:100BC0000318022EB508031D022E34081E3C031C18
:100BD000022EA8018B1BA8178B130430D000D02144
:100BE000A81B8B1783168613831286130230B90055
:100BF000F930BA000F23B90BF82D83168613831230
:100C000086170D2EB508031D092E34081E3C031847
:100C10000D2E83168613831286132F118316061743
:100C20008312061B142E2F15AF1DDA2E2A08BA00C8
:100C30002908B9000E30BB000130BC00A8018B1B95
:100C4000A8178B133A08D3003908D200D5010A300F
:100C5000D400C720A81B8B177708BD00A8018B1BE9
:100C6000A8178B133A08D3003908D200D5010A30EF
:100C7000D400C720A81B8B1777083902C0003A0898
:100C8000C1007A08031C7A0FC102A8018B1BA817A8
:100C90008B134108D3004008D200D5016430D40042
:100CA000C720A81B8B177708C1007A08C200A801CB
:100CB0008B1BA8178B137A08D3007708D200D501B5
:100CC0000A30D400C720A81B8B177808BE00A801E3
:100CD0008B1BA8178B133A08D3003908D200D50113
:100CE0006430D400C720A81B8B1777083902C000D6
:100CF0003A08C1007A08031C7A0FC102A8018B1BB5
:100D0000A8178B134108D3004008D2000330D50048
:100D1000E830D400C720A81B8B177708C1007A08D9
:100D2000C200A8018B1BA8178B137A08D300770881
:100D3000D200D5016430D400C720A81B8B177808D7
:100D4000BF00A8018B1BA8178B133B08D0003C08E1
:100D5000D100BE21A81B8B17C1013F08C00006238C
:100D60007808C000A8018B1BA8178B137808CF0048
:100D7000E421A81B8B17C1013E08C0000623780898
:100D8000C000A8018B1BA8178B137808CF00E421A3
:100D9000A81B8B17C1013D08C00006237808C000BE
:100DA000A8018B1BA8178B137808CF00E421A81B80
:100DB0008B17AF11320FA32F330FA32F3508BA00B3
:100DC0003408B9000D30BB000230BC00A8018B1BF9
:100DD000A8178B133A08D3003908D200D5010A307E
:100DE000D400C720A81B8B177708BD00A8018B1B58
:100DF000A8178B133A08D3003908D200D5010A305E
:100E0000D400C720A81B8B1777083902C0003A0806
:100E1000C1007A08031C7A0FC102A8018B1BA81716
:100E20008B134108D3004008D200D5016430D400B0
:100E3000C720A81B8B177708C1007A08C200A80139
:100E40008B1BA8178B137A08D3007708D200D50123
:100E50000A30D400C720A81B8B177808BE00A80151
:100E60008B1BA8178B133A08D3003908D200D50181
:100E70006430D400C720A81B8B1777083902C00044
:100E80003A08C1007A08031C7A0FC102A8018B1B23
:100E9000A8178B134108D3004008D2000330D500B7
:100EA000E830D400C720A81B8B177708C1007A0848
:100EB000C200A8018B1BA8178B137A08D3007708F0
:100EC000D200D5016430D400C720A81B8B17780846
:100ED000BF00A8018B1BA8178B133B08D0003C0850
:100EE000D100BE21A81B8B17C1013F08C0000623FB
:100EF0007808C000A8018B1BA8178B137808CF00B7
:100F0000E421A81B8B17C1013E08C0000623780806
:100F1000C000A8018B1BA8178B137808CF00E42111
:100F2000A81B8B17C1013D08C00006237808C0002C
:100F3000A8018B1BA8178B137808CF00E421A81BEE
:100F40008B17B301B201B20A0319B30A6F2D630004
:02400E003A3F37
:00000001FF
;PIC16F877A
