:1000000000308A0015290000FF00030E8301A100C3
:100010000A08A0008A010408A2007708A300780853
:10002000A4007908A5007A08A6007B08A70083131E
:1000300083128B1E1D280B1934280B1E21288B18A8
:100040003728220884002308F7002408F800250830
:10005000F9002608FA002708FB0020088A00210E74
:100060008300FF0E7F0E09008A110A123A288A11B6
:100070000A125928AA0B4128AF0A0319B00A1330F3
:10008000AA000B118A110A12212837308400831329
:100090000008031958280630F800F701F70B4E281E
:1000A000F80B4D287B30F700F70B5428800B4B28BA
:1000B00000343508FB3E03189628053E9A2883161F
:1000C00086138312861396280830B70045208316BE
:1000D0008613831286170230B700452083168613D5
:1000E0008312861396280530B700452083168613A1
:1000F000831286170530B7004520831686138312B6
:10010000861396280230B700452083168613831283
:1001100086170830B700452083168613831286138E
:100120009628831686138312861796288B108A11B9
:100130000A1221280A108A100A1182075F286428EF
:1001400073288228912883161F109F141F159F154E
:100150001F1383121F139F1783169F1783121F14D9
:100160008316091283129412B6123608831687007A
:10017000831236163608831687008312B6113608A6
:100180008316870000308312940083169400083091
:10019000F700F71DD62807308312810181308400D3
:1001A00083130008C0390F38800083166400813043
:1001B00084000008C0397704800083129001003069
:1001C000F800920000308316920007309C0005086A
:1001D0001030F700F70BEA2800001C0883120D13FB
:1001E00083169D0183128B160B16C0308B04831669
:1001F00001178601831286010030B600831687013D
:10020000831287010130831686001F308700831216
:10021000B600003083168800F80083121F08C73923
:1002200078049F008A110A123429840183131F3035
:100230008305813083169900A63098009030831290
:10024000980083161F149F141F159F1107309C00E0
:1002500001308312A800A9012E10AE10AF01B00129
:10026000B500FF30B600A328361436088316870081
:100270008312071C3D29B5016429B614360883167C
:1002800087008312871C47290130B5006429361581
:100290003608831687008312071D51290230B500E6
:1002A0006429B6153608831687008312871D5B29DB
:1002B0000330B5006429361636088316870083128A
:0C02C000071E64290430B50034296300D7
:02400E003A3F37
:00000001FF
;PIC16F877A
