:1000000000308A00E22B0000FF00030E8301A100F4
:100010000A08A0008A010408A2007708A300780853
:10002000A4007908A5007A08A6007B08A70083131E
:1000300083128B1E1D280B1934280B1E21288B18A8
:100040003728220884002308F7002408F800250830
:10005000F9002608FA002708FB0020088A00210E74
:100060008300FF0E7F0E09008A110A1294288A115C
:100070000A12CD280A108A100A11820728340C347B
:10008000013406340A108A100A1182075334593495
:100090005334543445344D3420345334543441347F
:1000A00052345434453444342E342E3400340A103F
:1000B0008A100A1182073D343D343D343D343D34CD
:1000C0003D343D343D343D343D343D343D343D34A8
:1000D0003D343D343D3400340A108A100A11820741
:1000E0000C344E3475346D346234653472344934B2
:1000F0006E3473346934643465343A3400340A102D
:100100008A100A118207543465346D3470346534B2
:100110007234613474347534723465343A34203452
:100120002034203443340034AA0B9B28AF0A03192F
:10013000B00A1330AA000B118A110A1221283008C4
:10014000033C031CB428031DA9282F08E83C031C0A
:10015000B428B008031DB0282F08003C0318B428A9
:100160000130F800C628C6283008023C0318C3280E
:10017000FF3A031DBF282F08E83C0318C3280230AC
:10018000F800C628C6280030F800C628003413300E
:10019000AA008101B001AF01003483160615831255
:1001A000061DE828AE149F207808023C031DDB28BA
:1001B0002E1CDB282E102E1CE6289F20780BE4280E
:1001C000A80A0319A90AAE152E10AE10C7200929D6
:1001D000831686148312861C09292E149F20780802
:1001E000023C031DF628AE1CF628AE10AE1C0829F2
:1001F0009F20780B0629A808031D0129A9080319C7
:10020000062928080319A903A803AE152E10AE105D
:10021000C7208B108A110A12212883161F109F14E1
:100220001F159F151F1383121F139F1783169F17E8
:1002300083121F148316091283129412B7123708FF
:1002400083168700831237163708831687008312B8
:10025000B711370883168700003083129400831685
:1002600094000830F700F71D402907308312810100
:100270008130840083130008C0390F388000831652
:100280006400813084000008C03977048000831244
:1002900090010030F8009200003083169200073081
:1002A0009C0005081030F700F70B542900001C08CB
:1002B00083120D1383169D0183128B160B16C0300B
:1002C0008B04831601178601831286010030B70064
:1002D000831687018312870147308316860000301A
:1002E00087008312B70083168800F80083121F0866
:1002F000C73978049F008A110A12072C4130840004
:1003000083130008031991290630F800F701F70B51
:100310008729F80B86297B30F700F70B8D29800B96
:10032000842900344818962908129729081683163C
:1003300008128312C8189E2988129F2988168316CE
:10034000881283124819A6290813A72908178316AB
:1003500008138312C819AE298813AF29881783168A
:10036000881300008811831288150330F700F70BFB
:10037000B72983168811831288110034C9018316A6
:1003800088118312881500008316081683124910FD
:10039000081A4914831688168312C910881AC914BA
:1003A0008316081783124911081B491583168817ED
:1003B0008312C911881BC9158316881183128811ED
:1003C0004908F800003483168810831288108316B9
:1003D0000811831208150000BE217808C800BE214C
:1003E0007808C700480EF700F030F7057708470493
:1003F000F8007808C700C71BE729C5080319052AB4
:100400008316881083128814092A83168810831291
:10041000881000008316081183120811000083164B
:10042000881183128811460EC7000F30C705470890
:10043000C800922146080F39C700C8009221003435
:10044000420B232A262A4030C300272AC301013049
:100450004102C30743088038C400C5014408C600F0
:10046000E321003440080C3A03193D2A063A0319E7
:10047000452A023A03194B2A502AC5010130C60009
:10048000E3210230C1007E21562A0130C100023032
:10049000C2002022562AC5011030C600E321562A88
:1004A0000130C5004008C600E321562A0034F80197
:1004B000F901F701FA014508031D612A44080319EF
:1004C0007B2A1030C6000310C20DC30DF70DFA0DC4
:1004D00045087A02031D6E2A44087702031C772A16
:1004E0004408F702031CFA034508FA020314F80D46
:1004F000F90DC60B632A003430303F07F80040087E
:10050000FA000318FA0A780800343908C3003808DA
:10051000C200C5010A30C40057227708BC00390860
:10052000C3003808C200C5010A30C400572277084A
:100530003802BF003908C0007A08031C7A0FC002D5
:100540004008C3003F08C200C5016430C400572200
:100550007708C0007A08C100C3007708C200C5014F
:100560000A30C40057227808BD003908C300380893
:10057000C200C5016430C400572277083802BF00AA
:100580003908C0007A08031C7A0FC0024008C30073
:100590003F08C2000330C500E830C4005722770886
:1005A000C0007A08C100C3007708C200C5016430EA
:1005B000C40057227808BE003A08C1003B08C200B8
:1005C0002022C0013E08BF007C227808BF00C00086
:1005D0003222C0013D08BF007C227808BF00C00065
:1005E0003222C0013C08BF007C227808BF00C00056
:1005F000322200340330B902031C082B3930840046
:10060000831300080319082B062B062B800B052BE0
:1006100000342808F7002908FA007A08031D122B75
:10062000F708031D182B8316861383128617C82B11
:10063000831606178312061FC22B2E1DC22BB40869
:10064000031D2B2B3308133C031C2B2B8316861303
:1006500083128617C12BB408031D322B3308133CB9
:1006600003184C2BB408031D4C2B3308163C031CF9
:100670004C2B0630C1007E2183168613831286130D
:100680000230B800F930B900FA22B80B422B8316B9
:10069000861383128617C12BB408031D532B33080E
:1006A000163C03186D2BB408031D6D2B3308183C42
:1006B000031C6D2B0530C1007E2183168613831227
:1006C00086130230B800F930B900FA22B80B632B58
:1006D0008316861383128617C12BB408031D742B4F
:1006E0003308183C0318952BB408031D952B3308C9
:1006F0001A3C031C952B0430C1007E210230B80047
:10070000F930B900FA22B80B802B831686138312B6
:1007100086130230B800F930B900FA22B80B8B2BDF
:100720008316861383128617C12BB408031D9C2BD6
:1007300033081A3C0318B62BB408031DB62B330834
:100740001D3C031CB62B0430C1007E21831686138A
:10075000831286130230B800F930B900FA22B80BC0
:10076000AC2B8316861383128617C12BB408031D86
:10077000BD2B33081D3C0318C12B8316861383122F
:1007800086132E11831606178312061BC82B2E15EF
:100790008A110A128A2C1030BC00F701FA01B90C38
:1007A000B80C031CD92B3A08F7070318FA0A3B08C0
:1007B000FA07FA0CF70CF90CF80CBC0BCF2B8A11CA
:1007C0000A12B02C840183131F30830581308316F5
:1007D0009900A630980090308312980083161F1459
:1007E0009F141F159F1107309C0003308312A8002F
:1007F000A9012E10AE102E15AE15AF01B001B1013A
:10080000B2011B30B300B401FF30B7000D2919301D
:10081000C1007E2183168810831288108316081168
:100820008312081183168811831288110F30C100BA
:100830007E21B8013808023C031C262C0330C80076
:1008400092210530C1007E21B80A1A2C0230C8005E
:100850009221B8013808033C031C372C38083A2091
:10086000B900C5013908C600E321B80A2A2C0130B5
:10087000C100C2002022B801380842200038031904
:10088000452CB80AC00032223C2CC0003222013074
:10089000C1000230C2002022B801380857200038B9
:1008A0000319562CB80AC00032224D2CC000322247
:1008B0000230B800FA30C1007E21B80B5A2C01304A
:1008C000C100C2002022B80138086C20003803198A
:1008D0006D2CB80AC0003222642CC00032222908D4
:1008E000B9002808B8000E30BA000130BB008522DC
:1008F0000130C1000230C2002022B80138087F2038
:1009000000380319872CB80AC00032227E2CC000A0
:100910003222092BAE1D962C2908B9002808B800F0
:100920000E30BA000130BB008522AE11310FD82C39
:10093000320FD82C1330F700F70B9C2C9F2C1F156F
:100940001F19A02C83161E088312B5001E08B600BE
:100950003608B9003508B800BB019630BA00CB2B79
:100960007908B9007808B8007908C3007808C2008F
:100970000130C5003330C40057227908FA007808E6
:10098000F7007908F800F901FA017808F90077080A
:10099000F8007908B4007808B3003408B9003308C7
:1009A000B8000D30BA000230BB008522B201B1019F
:0A09B000B10A0319B20A892C630092
:02400E003A3F37
:00000001FF
;PIC16F877A
