:1000000000308A00952B0000FF00030E8301A10041
:100010000A08A0008A010408A2007708A300780853
:10002000A4007908A5007A08A6007B08A70083131E
:1000300083128B1E1D280B1934280B1E21288B18A8
:100040003728220884002308F7002408F800250830
:10005000F9002608FA002708FB0020088A00210E74
:100060008300FF0E7F0E09008A110A1294288A115C
:100070000A12BE280A108A100A11820728340C348A
:10008000013406340A108A100A1182072A342A34ED
:100090002A342A342A34433453344534273431340F
:1000A00030342A342A342A342A342A3400340A10C8
:1000B0008A100A1182077C347C347C347C347C3492
:1000C0007C347C347C347C347C347C347C347C34B0
:1000D0007C347C347C3400340A108A100A11820784
:1000E0000C344E3475346D346234653472344934B2
:1000F0006E3473346934643465343A3400340A102D
:100100008A100A118207543465346D3470346534B2
:100110007234613474347534723465343A34203452
:100120002034203443340034AA0B9B28AF0A03192F
:10013000B00A1330AA000B118A110A1221283008C4
:10014000073C031CB428031DA9282F08D03C031C1E
:10015000B428B008031DB0282F08033C0318B428A6
:100160000130F800B728B7280030F800B72800346D
:100170001330AA008101B001AF01003483160615C7
:100180008312061DD328AE18D328AE142E1CD128F6
:100190009F20780BCF28A80A0319A90AAE152E10A4
:1001A000AE10B820E828831686148312861CE8282F
:1001B0002E18E8282E14AE1CE7289F20780BE5287F
:1001C00028080319A903A803AE152E10AE10B820F5
:1001D0008B108A110A12212883161F109F141F15D5
:1001E0009F151F1383121F139F1783169F178312C8
:1001F0001F148316091283129412B712370883163C
:100200008700831237163708831687008312B711C9
:1002100037088316870000308312940083169400F9
:100220000830F700F71D1F29073083128101813044
:10023000840083130008C0390F38800083166400DF
:10024000813084000008C039770480008312900157
:100250000030F800920000308316920007309C00B6
:1002600005081030F700F70B332900001C08831233
:100270000D1383169D0183128B160B16C0308B0451
:10028000831601178601831286010030B70083169A
:10029000870183128701473083168600003087006C
:1002A0008312B70083168800F80083121F08C7392D
:1002B00078049F008A110A12BA2B413084008313FC
:1002C0000008031970290630F800F701F70B6629BA
:1002D000F80B65297B30F700F70B6C29800B63293D
:1002E0000034481875290812762908168316081252
:1002F0008312C8187D2988127E29881683168812D1
:1003000083124819852908138629081783160813AC
:100310008312C8198D2988138E298817831688138C
:1003200000008811831288150330F700F70B962917
:1003300083168811831288110034C901831688112D
:100340008312881500008316081683124910081AB4
:100350004914831688168312C910881AC914831683
:10036000081783124911081B491583168817831231
:10037000C911881BC9158316881183128811490871
:10038000F800003483168810831288108316081131
:100390008312081500009D217808C8009D21780867
:1003A000C700480EF700F030F70577084704F8005B
:1003B0007808C700C71BC629C5080319E429831696
:1003C000881083128814E8298316881083128810F5
:1003D000000083160811831208110000831688118B
:1003E00083128811460EC7000F30C7054708C800A2
:1003F000712146080F39C700C80071210034420B33
:10040000022A052A4030C300062AC30101304102F6
:10041000C30743088038C400C5014408C600C22190
:10042000003440080C3A03191C2A063A0319242AFE
:10043000023A03192A2A2F2AC5010130C600C22117
:100440000230C1005D21352A0130C1000230C200F6
:10045000FF21352AC5011030C600C221352A0130DE
:10046000C5004008C600C221352A0034F801F90150
:10047000F701FA014508031D402A440803195A2AC6
:100480001030C6000310C20DC30DF70DFA0D45085C
:100490007A02031D4D2A44087702031C562A440899
:1004A000F702031CFA034508FA020314F80DF90DCC
:1004B000C60B422A003430303F07F8004008FA00EB
:1004C0000318FA0A780800343908C3003808C20053
:1004D000C5010A30C40036227708BC003908C300C1
:1004E0003808C200C5010A30C40036227708380235
:1004F000BF003908C0007A08031C7A0FC002400808
:10050000C3003F08C200C5016430C400362277082A
:10051000C0007A08C100C3007708C200C5010A30D4
:10052000C40036227808BD003908C3003808C2006C
:10053000C5016430C400362277083802BF0039088C
:10054000C0007A08031C7A0FC0024008C3003F08AD
:10055000C2000330C500E830C40036227708C0006E
:100560007A08C100C3007708C200C5016430C40026
:1005700036227808BE003A08C1003B08C200FF21BD
:10058000C0013E08BF005B227808BF00C0001122F6
:10059000C0013D08BF005B227808BF00C0001122E7
:1005A000C0013C08BF005B227808BF00C0001122D8
:1005B00000340330B902031CE72A39308400831366
:1005C00000080319E72AE52AE52A800BE42A00340B
:1005D000A808031DF32AA908031DF32A831686130E
:1005E000831286177B2B831606178312061F752B23
:1005F0002E1D752BB408031D062B3308133C031C5A
:10060000062B8316861383128617742BB408031DDA
:100610000D2B3308133C0318272BB408031D272B7D
:100620003308183C031C272B0730C1005D218316BB
:100630008613831286130230B800F930B900D9222C
:10064000B80B1D2B8316861383128617742BB408E0
:10065000031D2E2B3308183C0318482BB408031D28
:10066000482B33081B3C031C482B0630C1005D217E
:1006700083168613831286130230B800F930B9004E
:10068000D922B80B3E2B8316861383128617742B40
:10069000B408031D4F2B33081B3C0318692BB40807
:1006A000031D692B3308223C031C692B0530C10054
:1006B0005D2183168613831286130230B800F93049
:1006C000B900D922B80B5F2B8316861383128617C5
:1006D000742BB408031D702B3308223C0318742BB1
:1006E00083168613831286132E1183160617831220
:1006F000061B7B2B2E158A110A124F2C1030BC00C2
:10070000F701FA01B90CB80C031C8C2B3A08F70757
:100710000318FA0A3B08FA07FA0CF70CF90CF80C64
:10072000BC0B822B8A110A12792C840183131F308F
:100730008305813083169900A6309800903083128B
:10074000980083161F149F141F159F1107309C00DB
:1007500001308312A800A9012E10AE102E15AE157F
:10076000AF01B001B101B2011F30B300B401FF30DD
:10077000B700EC281930C1005D2183168810831260
:1007800088108316081183120811831688118312AA
:1007900088110F30C1005D21B8013808023C031CEC
:1007A000D92B0330C80071210530C1005D21B80A82
:1007B000CD2B0230C8007121B8013808033C031C5E
:1007C000EA2B38083A20B900C5013908C600C22111
:1007D000B80ADD2B0130C100C200FF21B801380882
:1007E000422000380319F82BB80AC0001122EF2B61
:1007F000C00011220130C1000230C200FF21B80147
:100800003808572000380319092CB80AC0001122F3
:10081000002CC00011220830B800FA30C1005D2160
:10082000B80B0D2C0130C100C200FF21B8013808FF
:100830006C2000380319202CB80AC0001122172C94
:10084000C00011222908B9002808B8000E30BA00EB
:100850000130BB0064220130C1000230C200FF2120
:10086000B80138087F20003803193A2CB80AC000B4
:100870001122312CC000112237103708831687004F
:100880008312071437113708831687008312071560
:10089000B71137088316870083128711E82AAE1D27
:1008A0005B2C2908B9002808B8000E30BA000130C6
:1008B000BB006422AE113108103C031DA12C32088C
:1008C000273C031DA12C1330F700F70B652C682C77
:1008D0001F151F19692C83161E088312B5001E08E8
:1008E000B6003608B9003508B800BB019630BA002A
:1008F0007E2B7908B9007808B8007908C300780819
:10090000C2000130C5003330C40036227908FA0035
:100910007808F7007908F800F901FA017808F90079
:100920007708F8007908B4007808B3003408B900F3
:100930003308B8000D30BA000230BB006422B201A7
:0C094000B101B10A0319B20A4E2C630089
:02400E003A3F37
:00000001FF
;PIC16F877A
