:1000000000308A00F92A0000FF00030E8301A100DE
:100010000A08A0008A010408A2007708A300780853
:10002000A4007908A5007A08A6007B08A70083131E
:1000300083128B1E1D280B1934280B1E21288B18A8
:100040003728220884002308F7002408F800250830
:10005000F9002608FA002708FB0020088A00210E74
:100060008300FF0E7F0E09008A110A1294288A115C
:100070000A12D2280A108A100A11820728340C3476
:10008000013406340A108A100A1182072A342A34ED
:100090002A342A342A34433453344534273431340F
:1000A00030342A342A342A342A342A3400340A10C8
:1000B0008A100A1182077C347C347C347C347C3492
:1000C0007C347C347C347C347C347C347C347C34B0
:1000D0007C347C347C3400340A108A100A11820784
:1000E0000C344E3475346D346234653472344934B2
:1000F0006E3473346934643465343A3400340A102D
:100100008A100A118207543465346D3470346534B2
:100110007234613474347534723465343A34203452
:100120002034203443340034AB0B9B28B00A03192D
:10013000B10A1330AB000B118A110A1221283108C1
:10014000073C031CB428031DA9283008D03C031C1D
:10015000B428B108031DB0283008033C0318B428A4
:100160000130F800B728B7280030F800B72800346D
:100170001330AB008101B101B0010034493084007B
:10018000831300080319D1280630F800F701F70B94
:10019000C728F80BC6287B30F700F70BCD28800B5B
:1001A000C4280034831606158312061DEA28AF14EE
:1001B0002F1CE8289F20780BE628A90A0319AA0A11
:1001C000B612360883168700831287162F10AF10D9
:1001D000B820FC28831686148312861CFC282F1452
:1001E000AF1CFB289F20780BF92829080319AA03C4
:1001F000A9032F10AF10B8200130C900BE208B100A
:100200008A110A12212883161F109F141F159F158B
:100210001F1383121F139F1783169F1783121F1418
:100220008316091283129412B612360883168700B9
:10023000831236163608831687008312B6113608E5
:1002400083168700003083129400831694000830D0
:10025000F700F71D362907308312810181308400B1
:1002600083130008C0390F38800083166400813082
:1002700084000008C03977048000831290010030A8
:10028000F800920000308316920007309C000508A9
:100290001030F700F70B4A2900001C0883120D13D9
:1002A00083169D0183128B160B16C0308B048316A8
:1002B00001178601831286010030B600831687017C
:1002C000831287014730831686000030870083122F
:1002D000B60083168800F80083121F08C739780417
:1002E0009F008A110A12162B4718782908127929BB
:1002F0000816831608128312C718802988128129CC
:1003000088168316881283124719882908138929A9
:100310000817831608138312C71990298813912987
:1003200088178316881300008811831288150330FC
:10033000F700F70B9929831688118312881100346E
:10034000C8018316881183128815000083160816C9
:1003500083124810081A4814831688168312C8108E
:10036000881AC8148316081783124811081B4815E9
:10037000831688178312C811881BC8158316881125
:10038000831288114808F8000034831688108312FD
:10039000881083160811831208150000A021780820
:1003A000C700A0217808C600470EF700F030F70517
:1003B00077084604F8007808C600C61BC929C40897
:1003C0000319E7298316881083128814EB298316F2
:1003D00088108312881000008316081183120811F8
:1003E00000008316881183128811450EC6000F3055
:1003F000C6054608C700742145080F39C600C70066
:1004000074210034410B052A082A4030C200092A11
:10041000C20101304002C20742088038C300C40153
:100420004308C500C52100343F080C3A03191F2AB0
:10043000063A03192D2A023A0319332A382AC4012D
:100440000130C500C521A8018B1BA8178B130230F2
:10045000C900BE20A81B8B173E2A0130C000023005
:10046000C10002223E2AC4011030C500C5213E2A27
:100470000130C4003F08C500C5213E2A0034F80100
:10048000F901F701FA014408031D492A4308031939
:10049000632A1030C5000310C10DC20DF70DFA0D0F
:1004A00044087A02031D562A43087702031C5F2A78
:1004B0004308F702031CFA034408FA020314F80D78
:1004C000F90DC50B4B2A003430303E07F8003F08C9
:1004D000FA000318FA0A780800343808C20037080E
:1004E000C100C4010A30C3003F227708BB003808AE
:1004F000C2003708C100C4010A30C3003F22770898
:100500003702BE003808BF007A08031C7A0FBF020A
:100510003F08C2003E08C100C4016430C3003F224E
:100520007708BF007A08C000C2007708C100C40184
:100530000A30C3003F227808BC003808C2003708E0
:10054000C100C4016430C3003F2277083702BE00F7
:100550003808BF007A08031C7A0FBF023F08C200A8
:100560003E08C1000330C400E830C3003F227708D2
:10057000BF007A08C000C2007708C100C40164301F
:10058000C3003F227808BD003908C0003A08C10006
:100590000222BF013D08BE0064227808BE00BF00F1
:1005A0001422BF013C08BE0064227808BE00BF00D0
:1005B0001422BF013B08BE0064227808BE00BF00C1
:1005C000142200341030BB00F701FA01B80CB70C4C
:1005D000031CF02A3908F7070318FA0A3A08FA0741
:1005E000FA0CF70CF90CF80CBB0BE62A8A110A126C
:1005F000D72B840183131F30830581308316990024
:10060000A630980090308312980083161F149F1410
:100610001F159F1107309C008312A901AA012F10FA
:10062000AF10B001B101FF30B6000329A8018B1B48
:10063000A8178B131930C900BE20A81B8B1783166F
:1006400088108312881083160811831208118316EC
:10065000881183128811A8018B1BA8178B130F30E8
:10066000C900BE20A81B8B17B7013708023C031C2A
:10067000472B0330C7007421A8018B1BA8178B13CD
:100680000530C900BE20A81B8B17B70A352B0230D6
:10069000C7007421B7013708033C031C582B3708E7
:1006A0003A20B800C4013808C500C521B70A4B2B51
:1006B0000130C000C1000222B701370842200038D3
:1006C0000319662BB70ABF0014225D2BBF0014224A
:1006D0000130C0000230C1000222B70137085720A4
:1006E00000380319772BB70ABF0014226E2BBF0006
:1006F00014220830B700A8018B1BA8178B13FA30FF
:10070000C900BE20A81B8B17B70B7B2B0130C00084
:10071000C1000222B70137086C2000380319942B5E
:10072000B70ABF0014228B2BBF0014222A08B8007E
:100730002908B7000E30B9000130BA006D2201302F
:10074000C0000230C1000222B70137087F20003804
:100750000319AE2BB70ABF001422A52BBF00142229
:100760002A08B8002908B7000E30B9000130BA00D5
:100770006D220230B700A8018B1BA8178B13FA302B
:10078000C900BE20A81B8B17B70BBB2B1F151F1949
:10079000C72B83161E088312B4001E08B500350847
:1007A000B8003408B700BA019630B900E22A7908D7
:1007B000B8007808B7007908C2007808C100013095
:1007C000C4003330C3003F227908FA007808F700EC
:1007D0007908F800F901FA017808F9007708F800BB
:1007E0007908B3007808B2003308B8003208B700BF
:0E07F0000D30B9000230BA006D22B02B63004C
:02400E003A3F37
:00000001FF
;PIC16F877A
