:1000000000308A00F62A0000FF00030E8301A100E1
:100010000A08A0008A010408A2007708A300780853
:10002000A4007908A5007A08A6007B08A70083131E
:1000300083128B1E1D280B1934280B1E21288B18A8
:100040003728220884002308F7002408F800250830
:10005000F9002608FA002708FB0020088A00210E74
:100060008300FF0E7F0E09008A110A1294288A115C
:100070000A12BE280A108A100A11820728340C348A
:10008000013406340A108A100A1182072A342A34ED
:100090002A342A342A34433453344534273431340F
:1000A00030342A342A342A342A342A3400340A10C8
:1000B0008A100A1182077C347C347C347C347C3492
:1000C0007C347C347C347C347C347C347C347C34B0
:1000D0007C347C347C3400340A108A100A11820784
:1000E0000C344E3475346D346234653472344934B2
:1000F0006E3473346934643465343A3400340A102D
:100100008A100A118207543465346D3470346534B2
:100110007234613474347534723465343A34203452
:100120002034203443340034AA0B9B28AF0A03192F
:10013000B00A1330AA000B118A110A1221283008C4
:10014000073C031CB428031DA9282F08D03C031C1E
:10015000B428B008031DB0282F08033C0318B428A6
:100160000130F800B728B7280030F800B72800346D
:100170001330AA008101B001AF01003483160615C7
:100180008312061DD228AE18D228AE142E1CD028F9
:100190009F20780BCE28A80A0319A90A2E10AE10AA
:1001A000B820E628831686148312861CE6282E18AB
:1001B000E6282E14AE1CE5289F20780BE32828089B
:1001C0000319A903A8032E10AE10B82083168613B6
:1001D0008312861783168613831286138B108A1157
:1001E0000A12212883161F109F141F159F151F1315
:1001F00083121F139F1783169F1783121F148316D2
:10020000091283129412B5123508831687008312DF
:1002100035163508831687008312B5113508831605
:100220008700003083129400831694000830F70092
:10023000F71D252907308312810181308400831343
:100240000008C0390F3880008316640081308400B4
:100250000008C03977048000831290010030F80054
:10026000920000308316920007309C000508103081
:10027000F700F70B392900001C0883120D138316B1
:100280009D0183128B160B16C0308B048316011749
:100290008601831286010030B50083168701831220
:1002A0008701073083168600003087008312B5006F
:1002B00083168800F80083121F08C73978049F004E
:1002C0008A110A12132B3F3084008313000803198C
:1002D00076290630F800F701F70B6C29F80B6B292B
:1002E0007B30F700F70B7229800B69290034461820
:1002F0007B2908127C290816831608128312C61857
:100300008329881284298816831688128312461935
:100310008B2908138C290817831608138312C61912
:10032000932988139429881783168813000088114D
:10033000831288150330F700F70B9C298316881168
:10034000831288110034C70183168811831288151F
:1003500000008316081683124710081A47148316E4
:1003600088168312C710881AC714831608178312B9
:100370004711081B4715831688178312C711881B5E
:10038000C71583168811831288114708F8000034B6
:10039000831688108312881083160811831208159B
:1003A0000000A3217808C600A3217808C500460EE6
:1003B000F700F030F70577084504F8007808C50025
:1003C000C51BCC29C3080319EA2983168810831298
:1003D0008814EE2983168810831288100000831673
:1003E00008118312081100008316881183128811E6
:1003F000440EC5000F30C5054508C60077214408E6
:100400000F39C500C60077210034400B082A0B2A9B
:100410004030C1000C2AC10101303F02C107410830
:100420008038C200C3014208C400C82100343E081D
:100430000C3A0319222A063A03192A2A023A031906
:10044000302A352AC3010130C400C8210230BF0060
:1004500063213B2A0130BF000230C00005223B2A45
:10046000C3011030C400C8213B2A0130C3003E083C
:10047000C400C8213B2A0034F801F901F701FA0150
:100480004308031D462A42080319602A1030C4009D
:100490000310C00DC10DF70DFA0D43087A02031DBC
:1004A000532A42087702031C5C2A4208F702031C05
:1004B000FA034308FA020314F80DF90DC40B482A95
:1004C000003430303D07F8003E08FA000318FA0AFD
:1004D000780800343708C1003608C000C3010A306C
:1004E000C2003C227708BA003708C1003608C000B5
:1004F000C3010A30C2003C2277083602BD0037082B
:10050000BE007A08031C7A0FBE023E08C1003D08F7
:10051000C000C3016430C2003C227708BE007A08E4
:10052000BF00C1007708C000C3010A30C2003C22EE
:100530007808BB003708C1003608C000C30164302A
:10054000C2003C2277083602BD003708BE007A0898
:10055000031C7A0FBE023E08C1003D08C0000330F4
:10056000C300E830C2003C227708BE007A08BF0012
:10057000C1007708C000C3016430C2003C22780883
:10058000BC003808BF003908C0000522BE013C0885
:10059000BD0061227808BD00BE001722BE013B08E5
:1005A000BD0061227808BD00BE001722BE013A08D6
:1005B000BD0061227808BD00BE0017220034103053
:1005C000BA00F701FA01B70CB60C031CED2A380883
:1005D000F7070318FA0A3908FA07FA0CF70CF90CAE
:1005E000F80CBA0BE32A8A110A12C82B8401831370
:1005F0001F308305813083169900A6309800903013
:100600008312980083161F149F141F159F11073023
:100610009C008312A801A9012E10AE10AF01B001F9
:10062000FF30B500F2281930BF006321831688100F
:1006300083128810831608118312081183168811FB
:10064000831288110F30BF006321B6013608023CC7
:10065000031C322B0330C60077210530BF00632115
:10066000B60A262B0230C6007721B6013608033CB5
:10067000031C432B36083A20B700C3013708C400D7
:10068000C821B60A362B0130BF00C0000522B601D2
:100690003608422000380319512BB60ABE00172233
:1006A000482BBE0017220130BF000230C0000522D7
:1006B000B6013608572000380319622BB60ABE006F
:1006C0001722592BBE0017220830B600FA30BF009F
:1006D0006321B60B662B0130BF00C0000522B601B6
:1006E00036086C2000380319792BB60ABE00172291
:1006F000702BBE0017222908B7002808B6000E305C
:10070000B8000130B9006A220130BF000230C000D9
:100710000522B60136087F2000380319932BB60A4C
:10072000BE0017228A2BBE0017223510350883160B
:10073000870083120714351135088316870083124A
:100740000715B5113508831687008312871129080C
:10075000B7002808B6000E30B8000130B9006A2290
:100760000230B600FA30BF006321B60BB22B1F1562
:100770001F19B82B83161E088312B3001E08B4007D
:100780003408B7003308B600B9019630B800DF2A44
:100790007908B7007808B6007908C1007808C00069
:1007A0000130C3003330C2003C227908FA007808D7
:1007B000F7007908F800F901FA017808F9007708DC
:1007C000F8007908B2007808B1003208B7003108A3
:1007D000B6000D30B8000230B9006A22A72B6300C2
:02400E003A3F37
:00000001FF
;PIC16F877A
