:020000040000FA
:04000000CEEF03F04C
:08000800056ED8CF06F0E0CF31
:1000100007F00001E9CF0DF0EACF08F0E1CF09F0D9
:10002000E2CF0AF0D9CF0BF0DACF0CF0F3CF14F017
:10003000F4CF15F0FACF16F000C00FF001C010F0A9
:1000400002C011F003C012F004C013F0F2AA2CEFAA
:1000500000F0F2B4C1EF00F0F2A832EF00F0F2B21B
:10006000FAEF00F0F0A638EF00F0F0B026EF01F064
:100070000FC000F010C001F011C002F012C003F078
:1000800013C004F00E8E0DC0E9FF08C0EAFF09C0DE
:10009000E1FF0AC0E2FF0BC0D9FF0CC0DAFF14C0B9
:1000A000F3FF15C0F4FF16C0FAFF055007C0E0FFCC
:1000B00006C0D8FF1000F2CF0EF0F29EF76AD00F04
:1000C000F66E000EF7220900F5500EBEF28E1200F9
:1000D000280C0106F2CF0EF0F29EF76AEE0FF66ED4
:1000E000000EF7220900F5500EBEF28E12002A2AE9
:1000F0002A2A2A4353452731302A2A2A2A2A00004D
:10010000F2CF0EF0F29EF76A1A0FF66E010EF7228A
:100110000900F5500EBEF28E12007C7C7C7C7C7C4B
:100120007C7C7C7C7C7C7C7C7C7C0000F2CF0EF038
:10013000F29EF76A460FF66E010EF7220900F5509F
:100140000EBEF28E12000C4E756D626572496E73B2
:100150006964653A0000F2CF0EF0F29EF76A700F04
:10016000F66E010EF7220900F5500EBEF28E120057
:1001700054656D70657261747572653A2020204314
:1001800000001C061C5205E1202AD8B4212A130EB7
:100190001C6EF29438EF00F0215027080DE303E1C4
:1001A0002050100809E3215203E12050000804E226
:1001B000010E016E04D003D0000E016E00D0000CC1
:1001C000130E1C6ED76AD66A216A206A000CEA6A8E
:1001D0003D0EE96EEF500DE0060E016E006A002E36
:1001E000FED7012EFBD77B0E006E002EFED7EF2E22
:1001F000F3D7000C938481A40ED01B861BA409D0D6
:10020000CBDF012C04D0192AD8B41A2A1B801B94E6
:100210001B96D6DF11D0938281A20ED01B841BA621
:100220000AD0BADF012C05D01950D8B41A06190625
:100230001B801B941B96C4DF080E3C6EFA0E3D6EAD
:10024000C6DF3C2EFBD7F29238EF00F01950006E5B
:100250001A50036E02E1005201E003D0939E8A8E91
:1002600030D0938081A028D01BA226D01B9223528D
:1002700006E12250130803E3939E8A8E1CD023527A
:1002800003E12250130810E223520EE122501D0810
:100290000BE3050E3D6E9BDF939E8A8E050E3D6E31
:1002A00096DF939E8A9E07D0235203E122501D08B9
:1002B00002E2939E8A9E05D0938081B002D01BA259
:1002C0001B82F09038EF00F0C190C182C184C186DA
:1002D000C19CC29CC28EC18EC2809698C69A949AC6
:1002E00094889496000EC66EC76ED190D190C80EB9
:1002F000D56ECD6A000ECA6E000ECB6EB150480BA3
:10030000B16EF28AF288F086C00EF212D36AF18CD6
:10031000F18A936A8A6A946A8B6A070E936E000E5A
:10032000946E956E016EC250C70B0110C26EE9EF5C
:1003300003F03AB002D08C9801D08C8895983AB2EC
:1003400002D08C9A01D08C8A959A3AB402D08C9CB7
:1003500001D08C8C959C3AB602D08C9E01D08C8EAC
:10036000959E000095968C86030E006E002EFED79B
:1003700095968C96000C3B6A95968C860000958825
:100380003B9083B83B80958A3B9283BA3B82958CA5
:100390003B9483BC3B84958E3B9683BE3B8695966F
:1003A0008C963BC001F0000C95948C840000E3DF38
:1003B00001C03AF0E0DF01C039F03A38006EF00ECB
:1003C000001600503910016EE9EF01F095928C9201
:1003D000EBD701C039F001BEFBD7375203E095924D
:1003E0008C8202D095928C92000095948C9400009F
:1003F00095968C963838396E0F0E391639C03AF00A
:1004000098DF38500F0B396E3A6E93DF000C9592DF
:100410008C9295948C9495968C96186AF2BE188E50
:10042000F29E0F0E3D6ED3DE18BEF28E2A6A2A505F
:1004300002080EE3030E3A6E7CDF186AF2BE188ED5
:10044000F29E050E3D6EC3DE18BEF28E2A2AEFD74D
:10045000020E3A6E6EDF2A6A2A5003080EE3036A20
:100460002A50F2CF2BF0F29E26DE2BBEF28E2C6E9F
:10047000376A386EABDF2A2AEFD71DEF03F0342C32
:1004800001D003D0400E356E01D0356A010E335CC9
:10049000352635508009366E376A386E97DF000C86
:1004A00032500C0A05E0060A11E0020A15E019D0E4
:1004B000376A010E386E8ADF186AF2BE188EF29E15
:1004C000020E3D6E84DE18BEF28E11D0010E336E28
:1004D000020E346ED4DF0BD0376A100E386E76DF22
:1004E00006D0010E376E32C038F070DF00D0000C3D
:1004F000016A026A006A036A375002E1365018E066
:10050000100E386ED89034363536003603363750F4
:10051000035C02E13650005C07E33650005ED8A071
:1005200003063750035ED88001360236382EEAD7EC
:10053000000C300E3124016E000E3220036E01508B
:10054000000C2BC035F02AC034F0376A0A0E366E24
:10055000CFDF00C02EF02BC035F02AC034F0376A50
:100560000A0E366EC5DF00502A5C316E03502B58E0
:10057000326E356E31C034F0376A640E366EB8DFD5
:1005800000C032F003C033F003C035F000C034F0D7
:10059000376A0A0E366EACDF01C02FF02BC035F083
:1005A0002AC034F0376A640E366EA2DF00502A5C2F
:1005B000316E03502B58326E356E31C034F0030E5D
:1005C000376EE80E366E94DF00C032F003C033F0B1
:1005D00003C035F000C034F0376A640E366E88DF31
:1005E00001C030F02CC033F02DC034F048DF326A47
:1005F00030C031F09EDF01C031F001C032F050DF79
:10060000326A2FC031F095DF01C031F001C032F005
:1006100047DF326A2EC031F08CDF01C031F001C0FB
:1006200032F03EDF000C186AF2BE188EF29E190EF0
:100630003D6ECDDD18BEF28EEAD6010E336E346EFD
:100640001EDF2A6A2A5046DD000904E02A2A326E9B
:1006500027DFF8D776C032F023DF010E336E020EAB
:10066000346E0DDF2A6A2A504BDD000904E02A2A85
:10067000326E16DFF8D777C032F012DF080E2A6E1E
:10068000186AF2BE188EF29EFA0E3D6EA0DD18BEFC
:10069000F28E2A2EF5D7010E336E346EF0DE2A6A02
:1006A0002A5044DD000904E02A2A326EF9DEF8D728
:1006B00078C032F0F5DE1AC02BF019C02AF00E0E09
:1006C0002C6E010E2D6E3DDF010E336E020E346E68
:1006D000D6DE2A6A2A503FDD000904E02A2A326E5B
:1006E000DFDEF8D779C032F0DBDEEAEF03F02A5024
:1006F0002C02F3CF01F0F4CF00F02D02F3500026CE
:100700002B502C02F3500020026E8FEF03F027C015
:100710002BF026C02AF02D6A960E2C6EE8D702C068
:100720002BF001C02AF002C035F001C034F0010EF8
:10073000376E330E366EDCDE02C003F001C000F00F
:1007400002C001F0026A036AC8EF03F0020E2A6ECB
:10075000186AF2BE188EF29EFA0E3D6E38DD18BE93
:10076000F28E2A2EF5D727C029F026C028F0C284A1
:10077000C2B4FED7C3CF26F0C4CF27F02650285CE2
:1007800003E12750295C08E0256A010E246EBFD7DB
:1007900001C023F000C022F0FEEF03F0F86AD09E03
:1007A0000D8EEA6AE96A810EAF6EA60EAC6E900EEF
:1007B000AB6EC180C182C184C196010E196E1A6AE6
:1007C0001B901B821B941B96206A216A246A256A4F
:1007D0007BD529D7C284C2B4FED7C3CF26F0C4CFFD
:1007E00027F01BA00AD01AC02BF019C02AF00E0E59
:1007F0002C6E010E2D6EA5DE1B90A8D7245025105F
:100800000BE023C02BF022C02AF00D0E2C6E020E3E
:0C0810002D6E97DE256A246AE4D70300F1
:020000040030CA
:0E00000000220D0E000181000FC00FE00F4026
:00000001FF
;PIC18F452
