:1000000000308A00CC290000FF00030E8301A1000C
:100010000A08A0008A010408A2007708A300780853
:10002000A4007908A5007A08A6007B08A70083131E
:1000300083128B1E1D280B1934280B1E21288B18A8
:100040003728220884002308F7002408F800250830
:10005000F9002608FA002708FB0020088A00210E74
:100060008300FF0E7F0E09008A110A1242288A11AE
:100070000A1261280A108A100A11820728340C34E7
:1000800001340634AB0B4928B00A0319B10A133006
:10009000AB000B118A110A1221284030840083130F
:1000A0000008031960280630F800F701F70B5628FE
:1000B000F80B55287B30F700F70B5C28800B532892
:1000C00000343608003A03196C28013A03197128E4
:1000D000033A03198028852883168613831286170E
:1000E00085280530C0004D208316861383128613A1
:1000F0000530C0004D20831686138312861785288D
:10010000831686138312861385288B108A110A1290
:10011000212883161F109F141F159F151F1383126C
:100120001F139F1783169F1783121F14831609121C
:1001300083129412B8123808831687008312381677
:100140003808831687008312B81138088316870091
:10015000003083129400831694000830F700F71DD6
:10016000BC2807308312810181308400831300088A
:10017000C0390F3880008316640081308400000885
:10018000C03977048000831290010030F80092009B
:1001900000308316920007309C0005081030F700ED
:1001A000F70BD02800001C0883120D1383169D0145
:1001B00083128B160B16C0308B0483160117860131
:1001C000831286010030B8008316870183128701ED
:1001D0000130831686001F3087008312B80000307C
:1001E00083168800F80083121F08C73978049F001F
:1001F0008A110A12EC293E18FF2808120029081655
:10020000831608128312BE18072988120829881637
:100210008316881283123E190F2908131029081714
:10022000831608138312BE191729881318298817F3
:100230008316881300008811831288150330F70095
:10024000F70B202983168811831288110034BF010F
:1002500083168811831288150000831608168312EE
:100260003F10081A3F14831688168312BF10881A8D
:10027000BF148316081783123F11081B3F158316FE
:1002800088178312BF11881BBF158316881183122C
:1002900088113F08F8000034A8018B1BA8178B13A6
:1002A0001930C0004D20A81B8B17831688108312AD
:1002B000881083160811831208118316881183127F
:1002C0008811A8018B1BA8178B130F30C0004D207D
:1002D000A81B8B17B9013908023C031C7D29033088
:1002E000BE00FB20A8018B1BA8178B130530C00094
:1002F0004D20A81B8B17B90A6B290230BE00FB20CA
:10030000B9013908033C031CC92939083A20BA004D
:10031000BB013A08BC00831688108312881083162C
:10032000081183120815000027217808BE00272134
:100330007808BD003E0EF700F030F70577083D0461
:10034000F8007808BD00BD1B8F29BB080319AD2933
:100350008316881083128814B1298316881083129B
:1003600088100000831608118312081100008316FC
:100370008811831288113C0EBD000F30BD053D0869
:10038000BE00FB203C080F39BD00BE00FB20B90AAF
:1003900081298A110A12ED29840183131F308305F4
:1003A000813083169900A63098009030831298000F
:1003B00083161F149F141F159F1107309C000130D6
:1003C0008312A900AA012F10AF10B001B101B6002D
:1003D000B701FF30B80089284C2938143808831633
:1003E00087008312071CF629B601092AB8143808B9
:1003F000831687008312871C002A0130B600092A61
:1004000038153808831687008312071D092A023021
:06041000B600ED296300B7
:02400E003A3F37
:00000001FF
;PIC16F877A
