:1000000000308A00DD2A0000FF00030E8301A100FA
:100010000A08A0008A010408A2007708A300780853
:10002000A4007908A5007A08A6007B08A70083131E
:1000300083128B1E1D280B1934280B1E21288B18A8
:100040003728220884002308F7002408F800250830
:10005000F9002608FA002708FB0020088A00210E74
:100060008300FF0E7F0E09008A110A1294288A115C
:100070000A12BE280A108A100A11820728340C348A
:10008000013406340A108A100A1182072A342A34ED
:100090002A342A342A34433453344534273431340F
:1000A00030342A342A342A342A342A3400340A10C8
:1000B0008A100A1182077C347C347C347C347C3492
:1000C0007C347C347C347C347C347C347C347C34B0
:1000D0007C347C347C3400340A108A100A11820784
:1000E0000C344E3475346D346234653472344934B2
:1000F0006E3473346934643465343A3400340A102D
:100100008A100A118207543465346D3470346534B2
:100110007234613474347534723465343A34203452
:100120002034203443340034AB0B9B28AF0A03192E
:10013000B00A1330AB000B118A110A1221283008C3
:10014000073C031CB428031DA9282F08D03C031C1E
:10015000B428B008031DB0282F08033C0318B428A6
:100160000130F800B728B7280030F800B72800346D
:100170001330AB008101B001AF01003483160615C6
:100180008312061DD1282A15AA1CCF289F20780B80
:10019000CD28A80A0319A90A2A14AA102A11B820DE
:1001A000E428831686148312861CE428AA142A1DC8
:1001B000E3289F20780BE12828080319A903A80346
:1001C0002A14AA102A11B8208316861383128617C0
:1001D00083168613831286138B108A110A12212824
:1001E00083161F109F141F159F151F1383121F13B3
:1001F0009F1783169F1783121F14831609128312E9
:100200009412B912390883168700831239163908F7
:10021000831687008312B9113908831687000030CE
:1002200083129400831694000830F700F71D2329E9
:100230000730831281018130840083130008C039A4
:100240000F38800083166400813084000008C039B4
:1002500077048000831290010030F8009200003093
:100260008316920007309C0005081030F700F70B4A
:10027000372900001C0883120D1383169D01831279
:100280008B160B16C0308B04831601178601831260
:1002900086010030B9008316870183128701073079
:1002A00083168600003087008312B9008316880009
:1002B000F80083121F08C73978049F008A110A12B8
:1002C000FD2A433084008313000803197429063083
:1002D000F800F701F70B6A29F80B69297B30F70062
:1002E000F70B7029800B672900344A187929081206
:1002F0007A290816831608128312CA1881298812CF
:10030000822988168316881283124A1989290813AC
:100310008A290817831608138312CA19912988138A
:100320009229881783168813000088118312881574
:100330000330F700F70B9A2983168811831288116E
:100340000034CB01831688118312881500008316B0
:10035000081683124B10081A4B1483168816831242
:10036000CB10881ACB148316081783124B11081B65
:100370004B15831688178312CB11881BCB15831658
:100380008811831288114B08F800003483168810F6
:100390008312881083160811831208150000A1210A
:1003A0007808CA00A1217808C9004A0EF700F03089
:1003B000F70577084904F8007808C900C91BCA295D
:1003C000C7080319E8298316881083128814EC29BA
:1003D0008316881083128810000083160811831278
:1003E000081100008316881183128811480EC90075
:1003F0000F30C9054908CA00752148080F39C900DE
:10040000CA0075210034440B062A092A4030C50071
:100410000A2AC50101304302C50745088038C600D5
:10042000C7014608C800C621003442080C3A031927
:10043000202A063A0319282A023A03192E2A332AB7
:10044000C7010130C800C6210230C3006121392A2A
:100450000130C3000230C4000322392AC701103022
:10046000C800C621392A0130C7004208C800C62189
:10047000392A0034F801F901F701FA014708031D90
:10048000442A460803195E2A1030C8000310C40D20
:10049000C50DF70DFA0D47087A02031D512A4608CB
:1004A0007702031C5A2A4608F702031CFA0347087E
:1004B000FA020314F80DF90DC80B462A0034303047
:1004C0004107F8004208FA000318FA0A78080034D5
:1004D0003B08C5003A08C400C7010A30C6003A22EA
:1004E0007708BE003B08C5003A08C400C7010A30BF
:1004F000C6003A2277083A02C1003B08C2007A08D7
:10050000031C7A0FC2024208C5004108C400C7019B
:100510006430C6003A227708C2007A08C300C500DA
:100520007708C400C7010A30C6003A227808BF0025
:100530003B08C5003A08C400C7016430C6003A222F
:1005400077083A02C1003B08C2007A08031C7A0F00
:10055000C2024208C5004108C4000330C700E830A9
:10056000C6003A227708C2007A08C300C50077089F
:10057000C400C7016430C6003A227808C0003C08B5
:10058000C3003D08C4000322C2014008C1005F222D
:100590007808C100C2001522C2013F08C1005F22D5
:1005A0007808C100C2001522C2013E08C1005F22C6
:1005B0007808C100C20015220034840183131F3063
:1005C0008305813083169900A630980090308312FD
:1005D000980083161F149F141F159F1107309C004D
:1005E0008312A801A9012A10AA102A11AF01B00193
:1005F000B301B401FF30B900F0281930C300612104
:10060000831688108312881083160811831208112C
:1006100083168811831288110F30C3006121BA013B
:100620003A08023C031C1C2B0330CA00752105301C
:10063000C3006121BA0A102B0230CA007521BA0129
:100640003A08033C031C2D2B3A083A20BB00C70193
:100650003B08C800C621BA0A202B0130C300C400E1
:100660000322BA013A084220003803193B2BBA0A88
:10067000C2001522322BC20015220130C300023005
:10068000C4000322BA013A085720003803194C2B42
:10069000BA0AC2001522432BC20015220830BA0044
:1006A000FA30C3006121BA0B502B0130C300C400E3
:1006B0000322BA013A086C2000380319632BBA0AE6
:1006C000C20015225A2BC20015222908BB00280897
:1006D000BA000E30BC000130BD0068220130C300FA
:1006E0000230C4000322BA013A087F2000380319FF
:1006F0007D2BBA0AC2001522742BC20015221F15C9
:100700001F19802B83161E088312B7001E08B8001D
:100710002A1C942B2908BB002808BA000E30BC0004
:100720000130BD0068222A10330834040319A32BBA
:100730003208BB003108BA000D30BC000230BD00E9
:0A0740006822B401B301882B6300A6
:02400E003A3F37
:00000001FF
;PIC16F877A
