:1000000000308A008A290000FF00030E8301A1004E
:100010000A08A0008A010408A2007708A300780853
:10002000A4007908A5007A08A6007B08A70083131E
:1000300083128B1E1D280B193028220884002308E8
:10004000F7002408F8002508F9002608FA00270818
:10005000FB0020088A00210E8300FF0E7F0E09009E
:100060008A110A123B280A108A100A1182072834C2
:100070000C3401340634AA0B4228AF0A0319B00A23
:100080001330AA000B118A110A121D2883161F10A3
:100090009F141F159F151F1383121F139F1783167D
:1000A0009F1783121F148316091283129412B7121A
:1000B00037088316870083123716370883168700A0
:1000C0008312B7113708831687000030831294001B
:1000D000831694000830F700F71D79280730831243
:1000E00081018130840083130008C0390F388000FB
:1000F00083166400813084000008C03977048000D2
:10010000831290010030F8009200003083169200B4
:1001100007309C0005081030F700F70B8D28000011
:100120001C0883120D1383169D0183128B16C03099
:100130008B04831601178601831286010030B700F5
:1001400083168701831287010130831686001F30D2
:1001500087008312B700003083168800F8008312EE
:100160001F08C73978049F008A110A12AB29393059
:100170008400831300080319CA280630F800F70129
:10018000F70BC028F80BBF287B30F700F70BC62809
:10019000800BBD2800343D18CF280812D02808163F
:1001A000831608128312BD18D7288812D8288816FB
:1001B0008316881283123D19DF280813E0280817D8
:1001C000831608138312BD19E7288813E8288817B7
:1001D0008316881300008811831288150330F700F6
:1001E000F70BF02883168811831288110034BE01A2
:1001F000831688118312881500008316081683124F
:100200003E10081A3E14831688168312BE10881AF0
:10021000BE148316081783123E11081B3E15831661
:1002200088178312BE11881BBE158316881183128E
:1002300088113E08F80000341930B900B720831641
:1002400088108312881083160811831208118316F0
:100250008811831288110F30B900B720B80138080F
:10026000023C031C3B290330BD00CB200530B90004
:10027000B720B80A2F290230BD00CB20B8013808BA
:10028000033C031C872938083320B900BA01390818
:10029000BB008316881083128810831608118312FE
:1002A00008150000F7207808BD00F7207808BC008A
:1002B0003D0EF700F030F70577083C04F8007808A9
:1002C000BC00BC1B4D29BA0803196B298316881082
:1002D000831288146F2983168810831288100000F7
:1002E00083160811831208110000831688118312E7
:1002F00088113B0EBC000F30BC053C08BD00CB2074
:100300003B080F39BC00BD00CB20B80A3F298A1139
:100310000A12AC29840183131F30830581308316B0
:100320009900A630980090308312980083161F140D
:100330009F141F159F1107309C0001308312A800E5
:10034000A9012E10AE10AF01B0012E15B500B601F7
:10035000FF30B70046281C2937143708831687005A
:100360008312071CB529B501C829B71437088316AD
:1003700087008312871CBF290130B500C8293715B3
:100380003708831687008312071DC8290230B5007D
:10039000831606148312061CF3292E1DF3292E1131
:1003A00035080319DA29013A0319DF29033A031939
:1003B000EE29F3298316861383128617F329053055
:1003C000B900B72083168613831286130530B9004F
:1003D000B7208316861383128617F3298316861394
:1003E00083128613F3298316061483120618F9293B
:0603F0002E15AC2963008C
:02400E003A3F37
:00000001FF
;PIC16F877A
