:1000000000308A002B2C0000FF00030E8301A100AA
:100010000A08A0008A010408A2007708A300780853
:10002000A4007908A5007A08A6007B08A70083131E
:1000300083128B1E1D280B1934280B1E21288B18A8
:100040003728220884002308F7002408F800250830
:10005000F9002608FA002708FB0020088A00210E74
:100060008300FF0E7F0E09008A110A124E288A11A2
:100070000A128F2B0A108A100A11820728340C34B6
:10008000013406340A108A100A1182076E3475345E
:100090006D346234653472343A340034AA0B5A2811
:1000A0000130AC070318AD0A0319AE0A0319AF0AF1
:1000B0001330AA000B118A110A1221282F08D2002E
:1000C0002E08D1002D08D0002C08CF000034F701F5
:1000D000F801F901FA018316A401A501A601A701FF
:1000E00023082204210420040319A6282030A80094
:1000F0000310F10DF20DF30DF40DA40DA50DA60DD9
:10010000A70D23082702031D8F2822082602031D9E
:100110008F2821082502031D8F2820082402031C94
:10012000A0282008A4022108031C210FA5022208F0
:10013000031C220FA6022308031C230FA70203148B
:10014000F70DF80DF90DFA0DA80B7828A4308400EE
:10015000831383120034F2018316881183128815E9
:1001600000008316081672108312081A7214831680
:100170008816F2108312881AF21483160817721167
:100180008312081B721583168817F2118312881BBD
:10019000F21583168811831288117208F800003452
:1001A00083160811831208150000AB207808F100AF
:1001B000AB207808F000710EF700F030F7057708F3
:1001C0007004F80000347118E7280812E8280816AF
:1001D00083160812F118F02883128812F228831669
:1001E00083128816831688127119FA28831208134D
:1001F000FC2883168312081783160813F1190429A3
:10020000831288130629831683128817831688138E
:1002100000008811831288150330F700F70B0E29B0
:100220008316881183128811003483168810831274
:100230008810D0207808F000F01B1929EE08031967
:10024000262983168810831288142A298316881079
:100250008312881000008316081183120811000011
:1002600083168811831288116F0EF0000F30F0058D
:100270007008F100E3206F080F39F000F100E3206F
:1002800000346B0B442947294030EC004829EC012D
:1002900001306A02EC076C088038ED00EE016D0851
:1002A000EF00152100346A3084008313000803191D
:1002B00066290630F800F701F70B5C29F80B5B297B
:1002C0007B30F700F70B6229800B5929003469084D
:1002D0000C3A03197229063A03197A29023A0319CA
:1002E00080298529EE010130EF0015210230EA0056
:1002F00053218B290130EA000230EB0041218B2988
:10030000EE011030EF0015218B290130EE00690855
:10031000EF0015218B2900342F08DA002E08D900B0
:100320002D08D8002C08D7004F085702DB005808CA
:10033000DC005008031C500FDC025908DD00510896
:10034000031C510FDD025A08DE005208031C520F35
:10035000DE025E08E2005D08E1005C08E0005B0888
:10036000DF000630E3000230E4006208F4006108B8
:10037000F3006008F2005F08F1008316A301A201F8
:10038000A1010A30A000831267200008E900840A56
:100390000008EA00840A0008EB00840A0008EC0068
:1003A00030306907E5006208F4006108F300600876
:1003B000F2005F08F1008316A301A201A1010A3037
:1003C000A000831267200008F700840A0008F800E4
:1003D000840A0008F900840A0008FA00FD30840746
:1003E00077085F02E9006008EA007808031C780FCC
:1003F000EA026108EB007908031C790FEB0262083E
:10040000EC007A08031C7A0FEC02EE010408ED0000
:100410006E10831B6E146C08F4006B08F3006A08FE
:10042000F2006908F1008316A301A201A101643062
:10043000A000831267200008F700840A0008F80073
:10044000840A0008F900840A0008FA006D08840094
:1004500083136E1883177A08ED007908EC0078088A
:10046000EB007708EA00F0010408EF007010831B2E
:1004700070147A08F4007908F3007808F20077081D
:10048000F1008316A301A201A1010A30A00083128A
:1004900067206F0884008313701883173030770744
:1004A000E6006208F4006108F3006008F2005F08EB
:1004B000F1008316A301A201A1016430A000831200
:1004C00067200008F700840A0008F800840A000882
:1004D000F900840A0008FA00FD30840777085F02FB
:1004E000E9006008EA007808031C780FEA02610856
:1004F000EB007908031C790FEB026208EC007A0824
:10050000031C7A0FEC02EE010408ED006E10831B51
:100510006E146C08F4006B08F3006A08F2006908B6
:10052000F1008316A301A2010330A100E830A0006E
:10053000831267200008F700840A0008F800840A84
:100540000008F900840A0008FA006D08840083138B
:100550006E1883177A08ED007908EC007808EB0034
:100560007708EA00F0010408EF007010831B701494
:100570007A08F4007908F3007808F2007708F100AF
:100580008316A301A201A1016430A0008312672099
:100590006F08840083137018831730307707E700E3
:1005A0006208F4006108F3006008F2005F08F100DF
:1005B0008316A301A2010330A100E830A00083123A
:1005C00067200008F700840A0008F800840A000881
:1005D000F900840A0008FA00FD30840777085F02FA
:1005E000E9006008EA007808031C780FEA02610855
:1005F000EB007908031C790FEB026208EC007A0823
:10060000031C7A0FEC02EE010408ED006E10831B50
:100610006E146C08F4006B08F3006A08F2006908B5
:10062000F1008316A301A2012730A1001030A00021
:10063000831267200008F700840A0008F800840A83
:100640000008F900840A0008FA006D08840083138A
:100650006E1883177A08ED007908EC007808EB0033
:100660007708EA00F0010408EF007010831B701493
:100670007A08F4007908F3007808F2007708F100AE
:100680008316A301A2010330A100E830A000831269
:1006900067206F0884008313701883173030770742
:1006A000E8006308EA006408EB0041216808E900FB
:1006B00067216708E90067216608E9006721650886
:1006C000E9006721DE08031D872BDD08031D872B4A
:1006D0005C080B3C031C872B031D722B5B08B83C8A
:1006E000031C872BDE08031D7F2BDD08031D7F2BDA
:1006F000DC08031D7F2B5B08003C0318872BD2010D
:10070000D101D001CF010130F8008E2B8E2BD20108
:10071000D101D001CF010030F8008E2B00348316B8
:1007200006158312061DB92BAB18B92B3708D2005A
:100730003608D1003508D0003408CF005E20AB1455
:100740002B1CB82B3308D2003208D1003108D0005E
:100750003008CF003B08D6003A08D5003908D4004D
:100760003808D3008C21780BB62BA90A2B10AB10BC
:10077000E22B831686148312861CE22B2B18E22BA5
:100780003308D2003208D1003108D0003008CF0041
:100790005E202B14AB1CE22B3708D2003608D100A8
:1007A0003508D0003408CF003F08D6003E08D500F9
:1007B0003D08D4003C08D3008C21780BE02BA90322
:1007C0002B10AB100230CF00FA30EA005321CF0BD0
:1007D000E42B83168613831286178B108A110A1254
:1007E00021284908F80148020318F92B4808F700A6
:1007F000052CF7010830CA00C80DF70D490877022B
:100800000318F700F80DCA0BFC2B0034F801F901AE
:10081000F701FA014C08031D102C4B0803192A2C70
:100820001030CD000310C90DCA0DF70DFA0D4C089C
:100830007A02031D1D2C4B087702031C262C4B0843
:10084000F702031CFA034C08FA020314F80DF90D21
:10085000CD0B122C0034840183131F3083058130AB
:1008600083169900A6309800903083129800831662
:100870001F149F141F159F1107309C008312A9019C
:100880002B10AB10AC01AD01AE01AF01B001B10155
:10089000B201B301B401B501B601B701B801B901A4
:1008A000BA01BB01BC01BD01BE01BF01C001FF30E7
:1008B000C10083161F109F141F159F151F1383124D
:1008C0001F139F1783169F1783121F148316091275
:1008D00083129412C11241088316870083124116B5
:1008E0004108831687008312C111410883168700CF
:1008F000003083129400831694000830F700F71D2F
:100900008C2C07308312810181308400831300080E
:10091000C0390F38800083166400813084000008DD
:10092000C03977048000831290010030F8009200F3
:1009300000308316920007309C0005081030F70045
:10094000F70BA02C00001C0883120D1383169D01C9
:1009500083128B160B16C0308B0483160117860189
:10096000831286010030C10083168701831287013C
:10097000073083168600003087008312C100F8001C
:100980001F08C73978049F008101831688108312DD
:100990008810831608118312081183168811831298
:1009A0008811A8018B1BA8178B130F30EA00532165
:1009B000A81B8B17C2014208023C031CF32CA801A0
:1009C0008B1BA8178B130330F100E320A81B8B1798
:1009D000A8018B1BA8178B130530EA005321A81B15
:1009E0008B17C20ADB2CA8018B1BA8178B130230B4
:1009F000F100E320A81B8B17C2014208033C031C33
:100A0000102D42083A20C300A8018B1BA8178B1396
:100A1000EE014308EF001521A81B8B17C20AFD2C1D
:100A2000A8018B1BA8178B130130EA00EB004121B2
:100A3000A81B8B17C20142084220003803192A2D37
:100A4000C20AA8018B1BA8178B13E9006721A81BFA
:100A50008B171B2DA8018B1BA8178B13E90067218F
:100A6000A81B8B172908C8000A30C900F1233030B1
:100A70007707C2002908C8000A30C900F1237708A7
:100A80002902C600C8006430C900F1237708C800F5
:100A90000A30C900F12330307807C3002908C800A4
:100AA0006430C900F12377082902C600CA0146084C
:100AB000C9000330CC00E830CB0006247708C7001B
:100AC0007A08C800CA007708C900CC016430CB009E
:100AD000062430307807C400A8018B1BA8178B139D
:100AE0000830EA000130EB004121A81B8B17A80158
:100AF0008B1BA8178B134408E9006721A81B8B17D1
:100B0000A8018B1BA8178B134308E9006721A81BBA
:100B10008B17A8018B1BA8178B134208E9006721CC
:080B2000A81B8B17922D630046
:02400E003A3F37
:00000001FF
;PIC16F877A
