:020000040000FA
:0400000085EF01F097
:08000800056ED8CF06F0E0CF31
:1000100007F00001E9CF0DF0EACF08F0E1CF09F0D9
:10002000E2CF0AF0D9CF0BF0DACF0CF0F3CF14F017
:10003000F4CF15F0FACF16F000C00FF001C010F0A9
:1000400002C011F003C012F004C013F0F2AA2CEFAA
:1000500000F0F2B464EF00F0F0A632EF00F0F0B080
:1000600082EF00F00FC000F010C001F011C002F0EC
:1000700012C003F013C004F00E8E0DC0E9FF08C0DB
:10008000EAFF09C0E1FF0AC0E2FF0BC0D9FF0CC0C4
:10009000DAFF14C0F3FF15C0F4FF16C0FAFF0550D5
:1000A00007C0E0FF06C0D8FF1000F2CF0EF0F29EAE
:1000B000F76AC40FF66E000EF7220900F5500EBE67
:1000C000F28E1200280C01061B061B5205E1202AA5
:1000D000D8B4212A130E1B6EF29432EF00F0EA6AB4
:1000E000300EE96EEF500DE0060E016E006A002E34
:1000F000FED7012EFBD77B0E006E002EFED7EF2E13
:10010000F3D7000C2650000A05E0010A06E0030AB6
:100110000FE011D0939E8A8E0ED0050E306EDFDF79
:10012000939E8A9E050E306EDADF939E8A8E03D0F0
:10013000939E8A9E00D0F09032EF00F0C190C18271
:10014000C184C186C19CC29CC28EC18EC280969859
:10015000C69A949A94889496000EC66EC76ED190F3
:10016000D190C80ED56ECD6A000ECA6E000ECB6E51
:10017000B150480BB16EF28AF086C00EF212D36A0B
:10018000F18A936A8A6A946A8B6A020E936E1F0ED2
:10019000946E000E956E016EC250C70B0110C26EB8
:1001A0009EEF01F02EB002D08C9801D08C889598EB
:1001B0002EB202D08C9A01D08C8A959A2EB402D09D
:1001C0008C9C01D08C8C959C2EB602D08C9E01D03C
:1001D0008C8E959E000095968C86030E006E002EE8
:1001E000FED795968C96000C2F6A95968C8600000B
:1001F00095882F9083B82F80958A2F9283BA2F826B
:10020000958C2F9483BC2F84958E2F9683BE2F863A
:1002100095968C962FC001F0000C95948C8400006C
:10022000E3DF01C02EF0E0DF01C02DF02E38006EBC
:10023000F00E001600502D10016E22EF01F0959285
:100240008C92EBD701C02DF001BEFBD72B5203E0FF
:1002500095928C8202D095928C92000095948C9409
:10026000000095968C962C382D6E0F0E2D162DC0F5
:100270002EF098DF2C500F0B2D6E2E6E93DF75EF46
:1002800001F095928C9295948C9495968C96186A20
:10029000F2BE188EF29E0F0E306E21DF18BEF28E67
:1002A000286A285002080EE3030E2E6E7BDF186AC0
:1002B000F2BE188EF29E050E306E11DF18BEF28E61
:1002C000282AEFD7020E2E6E6DDF286A2850030809
:1002D0000EE3036A2850F2CF29F0F29EE6DE29BE33
:1002E000F28E2A6E2B6A2C6EAAD7282AEFD783EFBC
:1002F00001F0186AF2BE188EF29E190E306EEFDE13
:1003000018BEF28EBED79FEF01F0F86AD09E0D8E18
:10031000EA6AE96A810EAF6EA60EAC6E900EAB6E05
:10032000C180C182C184C196010E196E1A6A1F90E4
:100330001F92206A216A266E276A00D7DAD7948036
:1003400082A002D0266A0BD0948282A203D0010E32
:10035000266E05D0948482A402D0020E266EEFD7BA
:02036000030098
:020000040030CA
:0E00000000220D0E000181000FC00FE00F4026
:00000001FF
;PIC18F452
