:1000000000308A004E2B0000FF00030E8301A10088
:100010000A08A0008A010408A2007708A300780853
:10002000A4007908A5007A08A6007B08A70083131E
:1000300083128B1E1D280B1934280B1E21288B18A8
:100040003728220884002308F7002408F800250830
:10005000F9002608FA002708FB0020088A00210E74
:100060008300FF0E7F0E09008A110A1257288A1199
:100070000A121D2B0A108A100A11820728340C3428
:10008000013406340A108A100A1182070C346E34C7
:1000900075346D346234653472343A3400340A1085
:1000A0008A100A1182076D3473343A340034AA0B73
:1000B0005E28AF0A0319B00A1330AA000B118A1187
:1000C0000A122128F801F901F701FA015D08031D60
:1000D0006C285C08031986281030DE000310DA0D46
:1000E000DB0DF70DFA0D5D087A02031D79285C0817
:1000F0007702031C82285C08F702031CFA035D08E0
:10010000FA020314F80DF90DDE0B6E280034F70126
:10011000F801F901FA01E501E601E701E8016408E7
:100120006304620461040319C5282030E900031048
:10013000DD0DDE0DDF0DE00DE50DE60DE70DE80D43
:1001400064086802031DAE2863086702031DAE2819
:1001500062086602031DAE2861086502031CBF2801
:100160006108E5026208031C620FE6026308031CD3
:10017000630FE7026408031C640FE8020314F70D21
:10018000F80DF90DFA0DE90B9728653084008313FB
:100190000034DF018316881183128815000083164E
:1001A000081683125F10081A5F14831688168312CC
:1001B000DF10881ADF148316081783125F11081BDB
:1001C0005F15831688178312DF11881BDF158316CE
:1001D0008811831288115F08F80000348316081113
:1001E000831208150000C9207808DE00C9207808AD
:1001F000DD005E0EF700F030F70577085D04F800CB
:1002000000345E18052908120629081683160812FC
:100210008312DE180D2988120E298816831688127B
:1002200083125E1915290813162908178316081357
:100230008312DE191D2988131E2988178316881337
:1002400000008811831288150330F700F70B262968
:100250008316881183128811003483168810831244
:100260008810EE207808DD00DD1B3129DB0803193A
:100270003E29831688108312881442298316881019
:1002800083128810000083160811831208110000E1
:1002900083168811831288115C0EDD000F30DD0596
:1002A0005D08DE0001215C080F39DD00DE00012160
:1002B0000034580B5C295F294030D9006029D901EE
:1002C00001305702D90759088038DA00DB015A0893
:1002D000DC002D21003457308400831300080319FB
:1002E0007E290630F800F701F70B7429F80B732903
:1002F0007B30F700F70B7A29800B71290034560800
:100300000C3A03198A29063A03199229023A031969
:1003100098299D29DB010130DC002D210230D70016
:100320006B21A3290130D7000230D8005921A3291D
:10033000DB011030DC002D21A3290130DB00560841
:10034000DC002D21A32900343008DB002F08DA005F
:10035000DD010A30DC00622030307707D20030083F
:10036000DB002F08DA00DD010A30DC0062207708AC
:100370002F02D6003008D7007A08031C7A0FD70264
:100380005708DB005608DA00DD016430DC0062202B
:100390007708D7007A08D800DB007708DA00DD019B
:1003A0000A30DC00622030307807D3003008DB00F0
:1003B0002F08DA00DD016430DC00622077082F02AC
:1003C000D6003008D7007A08031C7A0FD7025708E6
:1003D000DB005608DA000330DD00E830DC00622084
:1003E0007708D7007A08D800DB007708DA00DD014B
:1003F0006430DC00622030307807D4003008DB0045
:100400002F08DA000330DD00E830DC0062207708D6
:100410002F02D6003008D7007A08031C7A0FD702C3
:10042000E001DF015708DE005608DD00E40101307D
:10043000E3008630E200A030E10087200008D7000A
:10044000840A0008D800840A0008D900840A000839
:10045000DA00DC010408DB005C10831B5C145A0822
:10046000E0005908DF005808DE005708DD00E4010D
:10047000E3010330E200E830E10087205B088400FC
:1004800083135C18831730307707D5000430D7000A
:100490000230D80059215508D6007F215408D600D3
:1004A0007F215308D6007F215208D6007F213008D3
:1004B000073C031C6C2A031D612A2F08D03C031C37
:1004C0006C2AB008031D682A2F08003C03186C2A08
:1004D0000130F8006F2A6F2A0030F8006F2A0034CC
:1004E0005A08F80159020318782A5908F700842A93
:1004F000F7010830DB00D90DF70D5A087702031811
:10050000F700F80DDB0B7B2A00342908D9000A30EC
:10051000DA00702230307707D2002908D9000A307B
:10052000DA00702277082902D700D9006430DA0097
:1005300070227708D9000A30DA007022303078074C
:10054000D3002908D9006430DA0070227708290224
:10055000D700DB015708DA000330DD00E830DC00AB
:1005600062207708D8007A08D900DB007708DA0023
:10057000DD016430DC00622030307807D400DB011C
:100580002908DA000330DD00E830DC00622077085B
:100590002902D600D7017A08031C7A0FD702E0019E
:1005A000DF015708DE005608DD00E4010130E300FA
:1005B0008630E200A030E10087200008D700840ADE
:1005C0000008D800840A0008D900840A0008DA006C
:1005D000DC010408DB005C10831B5C145A08E0009B
:1005E0005908DF005808DE005708DD00E401E30188
:1005F0000330E200E830E10087205B0884008313C9
:100600005C18831730307707D5000830D7000130E9
:10061000D80059215508D6007F215408D6007F21E3
:100620005308D6007F215208D6007F2100341330B2
:10063000AA008101B001AF010034831606158312B0
:10064000061D302BAE18302BAE142E1C2E2BA421E1
:10065000780B2C2BA90A85222E10AE101723422BC3
:10066000831686148312861C422B2E18422B2E14BE
:10067000AE1C412BA421780B3F2BA90385222E1001
:10068000AE101723831686138312861783168613DC
:10069000831286138B108A110A1221288401831376
:1006A0001F308305813083169900A6309800903062
:1006B0008312980083161F149F141F159F11073073
:1006C0009C008312A9012E10AE10AF01B001FF30C3
:1006D000B90083161F109F141F159F151F13831237
:1006E0001F139F1783169F1783121F148316091257
:1006F00083129412B91239088316870083123916AF
:100700003908831687008312B911390883168700C8
:10071000003083129400831694000830F700F71D10
:100720009C2B0730831281018130840083130008E1
:10073000C0390F38800083166400813084000008BF
:10074000C03977048000831290010030F8009200D5
:1007500000308316920007309C0005081030F70027
:10076000F70BB02B00001C0883120D1383169D019C
:1007700083128B160B16C0308B048316011786016B
:10078000831286010030B900831687018312870126
:10079000073083168600003087008312B900831665
:1007A0008800F80083121F08C73978049F00A80149
:1007B0008B1BA8178B131930D7006B21A81B8B1725
:1007C000831688108312881083160811831208116B
:1007D0008316881183128811A8018B1BA8178B130D
:1007E0000F30D7006B21A81B8B17BA013A08023CC7
:1007F000031C0E2CA8018B1BA8178B130330DE00E3
:100800000121A81B8B17A8018B1BA8178B13053080
:10081000D7006B21A81B8B17BA0AF62BA8018B1BDC
:10082000A8178B130230DE000121A81B8B17BA0119
:100830003A08033C031C2B2C3A083A20BB00A801C1
:100840008B1BA8178B13DB013B08DC002D21A81B99
:100850008B17BA0A182CA8018B1BA8178B1306300C
:10086000D7006B21A81B8B17A8018B1BA8178B1314
:100870000130D700D8005921A81B8B17BA013A08BC
:100880004220003803194E2CBA0AA8018B1BA81766
:100890008B13D6007F21A81B8B173F2CA8018B1B25
:1008A000A8178B13D6007F21A81B8B17A8018B1BC1
:1008B000A8178B138522A81B8B17A8018B1BA817C1
:1008C0008B130130D7000230D8005921A81B8B1799
:1008D000BA013A084F2000380319782CBA0AA80147
:1008E0008B1BA8178B13D6007F21A81B8B17692C95
:1008F000A8018B1BA8178B13D6007F21A81B8B1771
:04090000802C6300E4
:02400E003A3F37
:00000001FF
;PIC16F877A
